:020000040000FA
:060000000DEF2FF01200CD
:020006001200E6
:0600080085EF2CF0120050
:02000E000000F0
:020010000000EE
:0600180013EF2CF01200B2
:02001E000900D7
:100020005B660000B90B0000290000003F6600007D
:10003000E20B00001C0000000E0000005D0C000040
:1000400004000000DE650000000F000061000000F9
:10005000CE650000370C000010000000866500002F
:10006000710B0000480000007A650000470C00009A
:100070000C0000005A650000000C00002000000089
:0C008000525E0000800000000807000035
:04008C00D9CFE6FFE3
:10009000E1CFD9FF060EE126DE6ADD6A020EDB6AD9
:1000A000030EDB6A040EDB6A050EDB6ADE6ADD6ABC
:1000B000DECF14F0DDCF15F0D890155004E6080E11
:1000C000145C000E155812E2DECFE9FFDDCFEAFF27
:1000D000D890E936EA36270EE9260C0EEA22EE68B9
:1000E000ED68DF2A010EE4E3DB2AE2D7DE6ADD6A8F
:1000F000DECF14F0DDCF15F00B019351145C945159
:10010000155801E379D0090E086E096ADECF0DF0AB
:10011000DDCF0EF040EC2DF00B018B510624E96E83
:100120008C510720EA6E080EE926000EEA22EFCF76
:1001300014F0FE0EDB50145C59E1020EDB2A030EB4
:1001400001E3DB2A020EDBCF14F0030EDBCF15F048
:10015000FC0EDBCFE9FFFD0EDBCFEAFFEECF16F0A2
:10016000EFCF17F0030ED89016361736E806FBE1EE
:100170001450165C1550175839E2090E086E096ABA
:10018000DECF0DF0DDCF0EF040EC2DF00B018B51EA
:100190000624E96E8C510720EA6EEECF14F0EFCF03
:1001A00015F0040EDBCFE9FF050EDBCFEAFFD89098
:1001B000E936EA36270EE9260C0EEA2214C0EEFFD5
:1001C00015C0EDFF040EDB2A050E01E3DB2A040E49
:1001D000DBCF14F0050EDBCF15F0D890155004E6F8
:1001E000080E145C000E155801E3D3D0DF2A010E6F
:1001F00001E27ED7DB2A7CD7FC0EDBCFE9FFFD0EC8
:10020000DBCFEAFF000ED880EE54000EED5401E380
:10021000C0D0020EDBCF14F0030EDBCF15F0FC0EC6
:10022000DBCFE9FFFD0EDBCFEAFFEECF16F0EFCF1D
:1002300017F0030ED89016361736E806FBE1145077
:10024000165C1550175801E2A4D0FC0EDBCFE9FF75
:10025000FD0EDBCFEAFFEECF14F0EFCF15F0140662
:10026000000E155AFC0EDBCFE9FFFD0EDBCFEAFFD7
:1002700014C0EEFF15C0EDFF040EDB6A050EDB6A4D
:10028000020EDB6A030EDB6ADE6ADD6ADECF14F083
:10029000DDCF15F00B019351145C9451155801E317
:1002A00078D0090E086E096ADECF0DF0DDCF0EF0B2
:1002B00040EC2DF00B018B510624E96E8C51072088
:1002C000EA6E080EE926000EEA22EFCF14F0FE0EC9
:1002D000DB50145C58E1020EDB2A030E01E3DB2A3B
:1002E000020EDBCF14F0030EDBCF15F0FC0EDBCFDC
:1002F000E9FFFD0EDBCFEAFFEECF16F0EFCF17F0F0
:10030000030ED89016361736E806FBE11450165C3B
:100310001550175838E2090E086E096ADECF0DF045
:10032000DDCF0EF040EC2DF00B018B510624E96E71
:100330008C510720EA6EEECF14F0EFCF15F0040ECB
:10034000DBCFE9FF050EDBCFEAFFD890E936EA36CE
:10035000270EE9260C0EEA2214C0EEFF15C0EDFFB1
:10036000040EDB2A050E01E3DB2A040EDBCF14F0BA
:10037000050EDBCF15F0D890155004E6080E145C7E
:10038000000E155806E2DF2A010E01E27FD7DB2AB4
:100390007DD7060EE15C02E2E16AE552E16EE552CC
:1003A000E7CFD9FF1200D9CFE6FFE1CFD9FF020E88
:1003B000E126DE6ADD6AA5EC18F00C01271D0DE1CF
:1003C000281D0BE17C0EE66E550EE66EE66A45ECE6
:1003D0001BF0E552E552E552D6D0DE6ADD6ADECF8B
:1003E00014F0DDCF15F0D890155004E6080E145C1B
:1003F000000E155801E3C7D0DECF14F0DDCF15F0A5
:10040000D890155004E6040E145C000E155852E204
:10041000DECFE9FFDDCFEAFFD890E936EA36270ED6
:10042000E9260C0EEA22FF0EEE1814E1FF0EED187D
:1004300011E1770EE66E550EE66E040E086E096A3F
:10044000DECF0DF0DDCF0EF040EC2DF00650E66E65
:10045000E66A57D0DECFE9FFDDCFEAFFD890E93674
:10046000EA36270EE9260C0EEA22EECF14F0EFCF83
:1004700015F0166A176A15AE02D01668176814C010
:10048000E6FF15C0E6FF16C0E6FF17C0E6FF040E44
:10049000086E096ADECF0DF0DDCF0EF040EC2DF0D6
:1004A0000650E66EE66AF3EC19F0186E060EE15E91
:1004B000185063D0DECFE9FFDDCFEAFFD890E936F0
:1004C000EA36270EE9260C0EEA22FF0EEE1820E18E
:1004D000FF0EED181DE1770EE66E550EE66EDECFCF
:1004E00014F0DDCF15F0040E145E000E155AD890EE
:1004F00014361536D890143615361450E66E010EA3
:10050000E66E1AEC1BF0E552E552E552E55235D0A5
:10051000DECFE9FFDDCFEAFFD890E936EA36270ED5
:10052000E9260C0EEA22EECF14F0EFCF15F0166A92
:10053000176A15AE02D01668176814C0E6FF15C01A
:10054000E6FF16C0E6FF17C0E6FFDECF18F0DDCFEE
:1005500019F0040E185E000E195AD8901836193684
:10056000D890183619361850E66E010EE66EF3EC88
:1005700019F01A6E060EE15E1A50DF2A010E01E232
:100580002ED7DB2A2CD7020EE15C02E2E16AE552AB
:10059000E16EE552E7CFD9FF1200D9CFE6FFE1CFF8
:1005A000D9FF020EE126DE6ADD6ADE6ADD6ADECF91
:1005B00014F0DDCF15F00B019351145C94511558D4
:1005C0002AE2090E086E096ADECF0DF0DDCF0EF0CB
:1005D00040EC2DF00B018B510624E96E8C51072065
:1005E000EA6EEECF14F0EFCF15F0FD0EDB501418CD
:1005F0000DE1FE0EDB50151809E1DECF14F0DDCF62
:1006000015F014C0F3FF15C0F4FF07D0DF2A010E68
:10061000CEE3DB2ACCD7F368F468020EE15C02E299
:10062000E16AE552E16EE552E7CFD9FF1200D9CF7A
:10063000E6FFE1CFD9FF020EE126DF6A060EDF5C9E
:100640002EE2090E086E096A91CB0DF092CB0EF0E6
:100650006DEC2DF00B018B510624E96E8C510720B7
:10066000EA6E020EE926000EEA22E9CF15F0EACF83
:1006700016F0DF500F01E924E96E000EEA20EA6E61
:10068000EFCF14F0DF50EA6A210FE96E0C0EEA2278
:10069000EF50145C02E0000E03D0DF2ACFD7010E2A
:1006A000146E020EE15C02E2E16AE552E16E145062
:1006B000E552E7CFD9FF1200D9CFE6FFE1CFD9FF4E
:1006C000F90EDBCF14F0FA0EDBCF15F00A0E145C36
:1006D000000E15582CE2F80EDB50030828E1740ECA
:1006E000E66E550EE66EFB0EDBCFE6FFFD0EDBCFB2
:1006F000E6FF1AEC1BF0E552E552E552E552F90E21
:10070000DBCF14F0FA0EDBCF15F0166A176A14C0AF
:10071000E6FF15C0E6FF16C0E6FF17C0E6FFFB0EBA
:10072000DBCF18F0FC0EDBCF19F0020E45D0F90E2E
:10073000DBCF14F0FA0EDBCF15F00A0E145C000EBE
:10074000155804E2F80EDB5002080FE0F90EDBCF7B
:1007500014F0FA0EDBCF15F0640E145C000E155881
:1007600037E2F80EDB50030833E1720EE66E550EE9
:10077000E66EFB0EDBCFE6FFFD0EDBCFE6FF1AECED
:100780001BF0E552E552E552E552F90EDBCF14F0CD
:10079000FA0EDBCF15F0166A176A14C0E6FF15C013
:1007A000E6FF16C0E6FF17C0E6FFFB0EDBCF18F032
:1007B000FC0EDBCF19F0010E1824E66EFD0EDBCF28
:1007C000E6FFF3EC19F01A6E060EE15E1A5028D01F
:1007D000710EE66E550EE66EFD0EDBCFE6FF45ECC4
:1007E0001BF0E552E552E552F90EDBCF14F0FA0E9C
:1007F000DBCF15F0166A176A14C0E6FF15C0E6FFD6
:1008000016C0E6FF17C0E6FFFB0EDBCFE6FFFD0ECE
:10081000DBCFE6FFF3EC19F0186E060EE15E185020
:10082000E552E7CFD9FF1200A5EC18F00B01986B49
:10083000996BB26BAE6B9F6BA36BA96BAC6B8F6B41
:10084000906B1200A5EC18F00B01986B996B8F6BF5
:10085000906B1200D9CFE6FFE1CFD9FF030EE1265E
:10086000DE6ADD6A000E0B01766F776B786F796B4D
:10087000746F756BDE6ADD6ADECF14F0DDCF15F0C4
:100880009351145C945115582EE2090E086E096AB2
:10089000DECF0DF0DDCF0EF040EC2DF00B018B51D3
:1008A0000624E96E8C510720EA6E080EE926000E38
:1008B000EA22020EEFCFDBFFDB50020A0CE0030A54
:1008C00006E0010A0BE1742B000E752307D0782B8C
:1008D000000E792303D0762B000E7723DF2A010E3A
:1008E000CBE3DB2AC9D7030EE15C02E2E16AE55201
:1008F000E16EE552E7CFD9FF1200D9CFE6FFE1CF95
:10090000D9FF020EE126DE6ADD6ADE6ADD6ADECF2D
:1009100014F0DDCF15F00B019351145C9451155870
:100920001BE2090E086E096ADECF0DF0DDCF0EF076
:1009300040EC2DF00B018B510624E96E8C51072001
:10094000EA6E080EE926000EEA22020EEF6EDF2A9A
:10095000010EDDE3DB2ADBD7020EE15C02E2E16A95
:10096000E552E16EE552E7CFD9FF1200836AE66AED
:10097000B2EC28F0E552020E8310836E1200836AF7
:10098000E66AB2EC28F0E552080E8310836E12007E
:10099000836AE66ADAEC28F0E5521200D9CFE6FF66
:1009A000E1CFD9FFE652DF6ADF500F081AE3EA6AA7
:1009B000DF34FE0BEA36E96EB90EE9260B0EEA22A9
:1009C000010EEE180CE1ED500AE1DF50EA6A7B0FF0
:1009D000E96E0B0EEA22EFCF20FC010E03D0DF2AD6
:1009E000E3D7000EE552E552E7CFD9FF12000B0125
:1009F000010ED51903E1D65101E1010C000C0B01E8
:100A0000010ED31903E1D45101E1010C000C0B01DB
:100A1000010ED11903E1D25101E1010C000CD9CF33
:100A2000E6FFE1CFD9FF020EE1260B019751040A40
:100A300002E1F7EF13F0240A02E1E0EF13F0380AC5
:100A400002E1AEEF13F01B0A02E127EF13F0190ADF
:100A500002E102EF13F0030A02E1E1EF12F0060AED
:100A600002E15CEF12F0080A02E13EEF12F00A0A1E
:100A700002E1FBEF11F0010A02E1B8EF11F0070A01
:100A800002E176EF11F0100A02E1DFEF10F0150A33
:100A900002E13EEF10F00A0A02E100EF10F0070A4F
:100AA00002E173EF0FF01C0A02E100EF0EF01D0AE5
:100AB00002E199EF0DF0030A02E120EF0DF01F0AA9
:100AC00002E1ADEF0BF01E0A02E1E0EF0AF01D0AB1
:100AD00002E137EF0AF0070A02E176EF09F0060AB1
:100AE00001E1BDD3050A01E14FD3010A01E1ADD215
:100AF0001E0A01E143D2030A01E1C1D1170A01E153
:100B0000AAD1030A01E121D1060A01E1E1D0010ADB
:100B100001E1C3D0030A2FE0050A02E02BEF14F035
:100B2000600EE66E550EE66EE66A010EE66E1AEC93
:100B30001BF0E552E552E552E5524F0EE66E550EBA
:100B4000E66EE66AE66A1AEC1BF0E552E552E552FB
:100B5000E55253EC1CF01CDF0B01010E7A6F47DFEE
:100B6000000902E12BEF14F05FDE0B018D6B8E6B41
:100B7000050EDFEF12F0982B000E99233E0EE66E65
:100B8000550EE66EE66AE66A1AEC1BF0E552E5528F
:100B9000E552E55203DF000933E0410E0C01205D10
:100BA00014E10B019051000828E20A0E0D6E0E6A46
:100BB0008DCB08F08ECB09F0E7EC2EF008C08DFB52
:100BC00009C08EFB0B01900718D00A0E205D15E2BC
:100BD0008DCB14F08ECB15F00A0E1502F3CF15F065
:100BE0001402F3CF14F0F450152620510B01F32416
:100BF0008D6F000E15208E6F902B0B01986B996BEB
:100C00000B019051000812E290CBE6FF8DCBE6FF7E
:100C10008ECBE6FF000EE66EE66A010EE66EE66A31
:100C20004BDD146E070EE15E14500BD03C0EE66EE9
:100C3000550EE66E010EE66E45EC1BF0E552E552F0
:100C4000E5522E0EE66E550EE66E030EE66E010EB2
:100C5000E66E1AEC1BF0E552E552E552E552030E42
:100C60000B01905D03E2C3DE000908E00B01905127
:100C7000000804E2D9DD0B01060E976FC8DE0009FB
:100C800002E00B01976B0B012C0E985D010E995938
:100C900002E22BEF14F0F5EF13F0986B996B8DCB0C
:100CA000E6FF8ECBE6FF79DCE552E552F3CF91FB10
:100CB000F4CF92FB0B01F31C01E1921D06E0010E43
:100CC000976FA5EC18F02BEF14F0070EDFEF12F082
:100CD000982B000E992398CB14F099CB15F00A0E9F
:100CE0000D6E0E6A98CB08F099CB09F0E7EC2EF068
:100CF00004C014F005C015F0050E045C000E055884
:100D00000AE20B01140E985D000E995904E2E66A9E
:100D1000B2EC28F003D0E66ADAEC28F0E5521D0EBA
:100D2000E66E550EE66EE66AE66A1AEC1BF0E552D0
:100D3000E552E552E5520B01280E985D000E9959D7
:100D400002E22BEF14F0F5EF13F0100EE66E550EE5
:100D5000E66EE66AE66A1AEC1BF0E552E552E552E9
:100D6000E552090E086E096A91CB0DF092CB0EF098
:100D70006DEC2DF00B018B510624E96E8C51072090
:100D8000EA6EEECF14F0EFCF15F0166A176A14C0B2
:100D9000E6FF15C0E6FF16C0E6FF17C0E6FF0D0E22
:100DA000E66EE66AF3EC19F0186E060EE15E185076
:100DB0000B01982B000E9923F1DD000936E0410E5E
:100DC0000C01205D14E10B018F5100082BE28F070D
:100DD0003C0EE66E550EE66E8FCBE6FF010EE66E1C
:100DE0001AEC1BF0E552E552E552E5521BD00A0E13
:100DF000205D18E20E0EE66E550EE66E8FCBE6FF16
:100E0000010EE66E1AEC1BF0E552E552E552E55292
:100E10000B018F51EA6A210FE96E0C0EEA2220CCF9
:100E2000EFFF8F2B0B01986B996B060E0B018F5DFB
:100E300003E3020E976FF8DC0B012C0E985D010E98
:100E4000995901E3976BE3DD000902E12BEF14F000
:100E50000B01F5EF13F0986B996B8F6B17EC03F0A8
:100E6000000909E00B019151921102E1DDEF10F050
:100E7000150EDFEF12F00B01040EDFEF12F0982BCE
:100E8000000E9923B251010A25E0010A41E1FE0E4C
:100E9000E66E540EE66EE66A45EC1BF0E552E5524E
:100EA000E552030EE66EE66A010EE66EC8EC19F036
:100EB000E552E552E552020EE66E070EE66E010EB1
:100EC000E66EC8EC19F0E552E552E552010EE66E09
:100ED0000E0E16D0EE0EE66E540EE66EE66A45EC89
:100EE0001BF0E552E552E552E66AE66A010EE66E4F
:100EF000C8EC19F0E552E552E552020EE66E070E17
:100F0000E66E010EE66EC8EC19F0E552E552E552C8
:100F10006EDD00090AE00B01B22B020EB25D02E3A6
:100F2000010EB26F986B996B8DDC71DD000908E0E2
:100F30000B01B251000802E3976B02D0B20782DCCA
:100F40005EDD01080AE10B01B251EA6AB00FE96EF9
:100F50000B0EEA22EFCF97FB75DC20DD000903E0E2
:100F60000B01986B996B0B012C0ED8809855010ED4
:100F7000995502E32BEF14F0F5EF13F0982B000EC8
:100F80009923DD0EE66E540EE66EE66A45EC1BF024
:100F9000E552E552E55202DD00093AE0410E0C014E
:100FA000205D14E10B018F5100082FE28F073C0EEA
:100FB000E66E550EE66E8FCBE6FF010EE66E1AEC7E
:100FC0001BF0E552E552E552E5521FD00A0E205DB6
:100FD0001CE2060E0B018F5D18E20E0EE66E550E3A
:100FE000E66E8FCBE6FF010EE66E1AEC1BF0E552C3
:100FF000E552E552E5520B018F51EA6A210FE96E85
:101000000C0EEA2220CCEFFF8F2B0B01986B996B13
:10101000EEDC000907E0060E0B018F5D03E30C0E0A
:10102000976F10DCF4DC000905E00B01150E976FDB
:1010300022EC04F00B012C0ED8809855010E995526
:1010400002E32BEF14F0F5EF13F0982B000E992329
:101050009F51040A3FE0070A1BE0010A15E0030A5A
:101060000FE0010A55E1FE0EE66E540EE66EE66AEA
:1010700045EC1BF0E552E552E552030EE66E13D047
:10108000EE0EE66E540E07D0CD0EE66E540E03D073
:10109000BD0EE66E540EE66EE66A45EC1BF0E552B8
:1010A000E552E552E66AE66A010EE66EC8EC19F012
:1010B000E552E552E552020EE66E070EE66E010EAF
:1010C000E66EC8EC19F0E552E552E552010EE66E07
:1010D0000E0E16D0AD0EE66E540EE66EE66A45ECC8
:1010E0001BF0E552E552E552E66AE66A010EE66E4D
:1010F000C8EC19F0E552E552E552020EE66E070E15
:10110000E66E010EE66EC8EC19F0E552E552E552C6
:101110006EDC000909E00B019F2B050E9F5D02E3C9
:10112000040E9F6F22EC04F072DC000909E00B0151
:101130009F51000802E3976B03D09F0722EC04F055
:101140005EDC010810E10B019F51EA6A9A0FE96E1B
:101150000B0EEA22EFCF97FB22EC04F00B01AE6BF3
:10116000A36BA96BAC6B1ADC000903E00B01986B55
:10117000996B0B012C0ED8809855010E995502E3FE
:101180002BEF14F0F5EF13F0982B000E99239E0E21
:10119000E66E540EE66EE66A45EC1BF0E552E5524B
:1011A000E552CEEC04F000093AE0410E0C01205D5E
:1011B00014E10B018F5100082FE28F073C0EE66E01
:1011C000550EE66E8FCBE6FF010EE66E1AEC1BF0B5
:1011D000E552E552E552E5521FD00A0E205D1CE2B1
:1011E000060E0B018F5D18E20E0EE66E550EE66ED2
:1011F0008FCBE6FF010EE66E1AEC1BF0E552E552CE
:10120000E552E5520B018F51EA6A210FE96E0C0E8F
:10121000EA2220CCEFFF8F2B0B01986B996BF7EC38
:1012200004F0000908E0060E0B018F5D04E30C0ECC
:10123000976F14EC04F007EC05F0000905E00B01D2
:10124000080E976F22EC04F00B012C0ED8809855F5
:10125000010E995502E32BEF14F0F5EF13F0982BE4
:10126000000E99238F0EE66E540EE66EE66A45EC8C
:101270001BF0E552E552E5520B01010E98192BE1E6
:10128000995129E1060EE66EE66A210EE66E0C0E15
:10129000E66E090E086E096A91CB0DF092CB0EF046
:1012A0006DEC2DF00B018B510624E96E8C5107205B
:1012B000EA6E020EE926000EEA22E9CF14F0EACF28
:1012C00015F0E9CFE6FFEACFE6FFDAEC2DF0166E77
:1012D000060EE15E16500B01280ED8809855000EC0
:1012E000995502E32BEF14F0F5EF13F0982B000E55
:1012F0009923A351020A33E0030A0FE0010A4DE1EA
:101300007F0EE66E540EE66EE66A45EC1BF0E55283
:10131000E552E552030EE66E0BD06F0EE66E540EEC
:10132000E66EE66A45EC1BF0E552E552E552E66AE8
:10133000E66A010EE66EC8EC19F0E552E552E55298
:10134000020EE66E070EE66E010EE66EC8EC19F0B0
:10135000E552E552E552010EE66E0E0E16D05F0E16
:10136000E66E540EE66EE66A45EC1BF0E552E55279
:10137000E552E66AE66A010EE66EC8EC19F0E5523F
:10138000E552E552020EE66E070EE66E010EE66EBF
:10139000C8EC19F0E552E552E552F7EC04F000090B
:1013A00009E00B01A32B030EA35D02E3020EA36F62
:1013B00022EC04F007EC05F000090AE00B01A35150
:1013C000000803E3080E976F01D0A30722EC04F096
:1013D000FFEC04F0010840E10B01A351EA6AA00F01
:1013E000E96E0B0EEA22EFCF97FB22EC04F093CBD1
:1013F00016F094CB17F01606000E175A0001176A64
:10140000030E16161650171010E193CB14F094CB60
:1014100015F01406000E155A020E0F0B19E0D890A5
:1014200015321432E806FBE113D093CB14F094CBC1
:1014300015F01406000E155A020E0F0B05E0D89099
:1014400015321432E806FBE1010E1426000E1522B7
:1014500014C0ADFB0B01AE6B0B012C0ED880985560
:10146000010E995502E32BEF14F0DDEF10F0982BED
:10147000000E9923C80E935D000E94591FE3530E7E
:10148000E66E540EE66EE66A45EC1BF0E552E55258
:10149000E5524B0EE66E540EE66E010EE66E45EC1E
:1014A0001BF0E552E552E5520B01280ED880985505
:1014B000000E995502E32BEF14F07FD0400EE66E3C
:1014C000540EE66EE66AE66A1AEC1BF0E552E55247
:1014D000E552E55295CB14F096CB15F0166A176AD3
:1014E00095CBE6FF96CBE6FF16C0E6FF17C0E6FFFA
:1014F0000A0EE66EE66AF3EC19F0186E060EE15E6F
:101500001850CEEC04F000093AE0410E0C01205DC9
:1015100014E10B018F5100082FE28F073C0EE66E9D
:10152000550EE66E8FCBE6FF010EE66E1AEC1BF051
:10153000E552E552E552E5521FD00A0E205D1CE24D
:10154000060E0B018F5D18E20E0EE66E550EE66E6E
:101550008FCBE6FF010EE66E1AEC1BF0E552E5526A
:10156000E552E5520B018F51EA6A210FE96E0C0E2C
:10157000EA2220CCEFFF8F2B0B01986B996BF7ECD5
:1015800004F0000908E0060E0B018F5D04E3100E65
:10159000976F22EC04F007EC05F0000905E00B0161
:1015A0000A0E976F22EC04F00B012C0ED880985590
:1015B000010E995502E32BEF14F0080EAAEF13F079
:1015C000982B000E9923360EE66E540EE66EE66AF0
:1015D000E66A1AEC1BF0E552E552E552E5522B0E95
:1015E000E66E540EE66EE66A010EE66E1AEC1BF02D
:1015F000E552E552E552E5520B01010E981901E062
:1016000087D0995101E084D0DE6ADD6A090E086E48
:10161000096A93CB0DF094CB0EF06DEC2DF00B011D
:101620008B510624E96E8C510720EA6E95CBEEFFB4
:1016300096CBEDFFDE6ADD6ADECF14F0DDCF15F06C
:10164000D890155004E6060E145C000E155845E2BD
:10165000DECFE9FFDDCFEAFF210EE9260C0EEA22FC
:10166000EF50E66E090E086E096A93CB0DF094CB2D
:101670000EF06DEC2DF00B018B510624E96E8C51B0
:101680000720EA6E020EE926000EEA22DE50E92467
:10169000E96EDD50EA20EA6EE552E750EF6EDECFEC
:1016A000E9FFDDCFEAFF210EE9260C0EEA22EF501A
:1016B000300FE66EDECF14F0DDCF15F00A0E1424E5
:1016C000E66E010EE66EC8EC19F0E552E552E55201
:1016D000DF2A010EB1E3DB2AAFD7090E086E096AD3
:1016E00093CB0DF094CB0EF06DEC2DF00B018B51E4
:1016F0000624E96E8C510720EA6E080EE926000EDA
:10170000EA22020EEF6E952B000E9623932B942364
:1017100095CB14F096CB15F01406000E155A166AE8
:10172000176A14C0E6FF15C0E6FF16C0E6FF17C033
:10173000E6FF090EE66EE66AF3EC19F0186E060E87
:10174000E15E18500B01280ED8809855000E99556F
:1017500002E32BEF14F03CEF10F0982B000E9923CE
:10176000040EAE03F328146E9351145C000E9455CE
:101770002EE2270EE66E540EE66EE66AE66A1AEC74
:101780001BF0E552E552E552E552040E0B01AE03A3
:10179000F328090D8B51F324E96E8C51F420EA6E85
:1017A000EECF14F0EFCF15F0166A176A14C0E6FFFB
:1017B00015C0E6FF16C0E6FF17C0E6FF030EE66E93
:1017C000E66AF3EC19F0186E060EE15E1850040E8E
:1017D0000B01AE03F350020F146E9351145C000E14
:1017E000945530E2230EE66E540EE66E080EE66E59
:1017F000E66A1AEC1BF0E552E552E552E552040E9A
:101800000B01AE03F350020F090D8B51F324E96E67
:101810008C51F420EA6EEECF14F0EFCF15F0166A7B
:10182000176A14C0E6FF15C0E6FF16C0E6FF17C032
:10183000E6FF0B0EE66EE66AF3EC19F0186E060E84
:10184000E15E1850040E0B01AE03F350030F146E4B
:101850009351145C000E945531E21F0EE66E540E47
:10186000E66EE66A010EE66E1AEC1BF0E552E552F2
:10187000E552E552040E0B01AE03F350030F090DC0
:101880008B51F324E96E8C51F420EA6EEECF14F004
:10189000EFCF15F0166A176A14C0E6FF15C0E6FF11
:1018A00016C0E6FF17C0E6FF030EE66E010EE66EF9
:1018B000F3EC19F0186E060EE15E1850040E0B01E1
:1018C000AE03F350040F146E9351145C000E945544
:1018D00032E21B0EE66E540EE66E080EE66E010E48
:1018E000E66E1AEC1BF0E552E552E552E552040EA5
:1018F0000B01AE03F350040F090D8B51F324E96E75
:101900008C51F420EA6EEECF14F0EFCF15F0166A8A
:10191000176A14C0E6FF15C0E6FF16C0E6FF17C041
:10192000E6FF0B0EE66E010EE66EF3EC19F0186E94
:10193000060EE15E1850F7EC04F000090BE00B0115
:10194000AD05AE5D04E2AE29AE6FA5EC18F00B015B
:10195000986B996B07EC05F000090AE00B01AE519A
:10196000000803E30A0E976F01D0AE0722EC04F0E3
:10197000CEEC04F000095AE00C0120050EE1040E43
:101980000B01AE03F328146E9351145C000E9455B2
:1019900004E2040EAE03F3283ED0020E0C01205DDB
:1019A00010E1040E0B01AE03F350020F146E9351BD
:1019B000145C000E945505E2040EAE03F350020FC2
:1019C0002AD0030E0C01205D10E1040E0B01AE03C2
:1019D000F350030F146E9351145C000E945505E2FE
:1019E000040EAE03F350030F16D0040E0C01205D5D
:1019F00010E1040E0B01AE03F350040F146E93516B
:101A0000145C000E945505E2040EAE03F350040F6F
:101A100002D00B010F0EAF6F0F0EAF5D04E0110E81
:101A2000976F22EC04F00B01986B996B0B012C0E55
:101A3000D8809855010E995502E32BEF14F0DED2B1
:101A4000982B000E9923100EE66E540EE66EE66A91
:101A5000E66A1AEC1BF0E552E552E552E5520B013D
:101A6000AF51090D8B51F324E96E8C51F420EA6ECD
:101A7000EECF14F0EFCF15F0166A176A14C0E6FF28
:101A800015C0E6FF16C0E6FF17C0E6FF0A0EE66EB9
:101A9000E66AF3EC19F0186E060EE15E18503F0E80
:101AA000E66E0F0EE66EE66AC8EC19F0E552E552F6
:101AB000E5520B0EE66E540EE66EE66A010EE66E19
:101AC0001AEC1BF0E552E552E552E552050EE66EC2
:101AD000540EE66E080EE66E010EE66E1AEC1BF072
:101AE000E552E552E552E552F7EC04F0000905E055
:101AF00022EC04F00B01120E976F07EC05F00009C1
:101B000005E022EC04F00B010E0E976FCEEC04F012
:101B1000000903E00B01986B996B0B012C0ED88028
:101B20009855010E995502E32BEF14F014EC04F0D4
:101B300063D0982B000E9923F50EE66E530EE66ED9
:101B4000E66AE66A1AEC1BF0E552E552E552E55208
:101B50000B01010E981946E1995144E1AF51166EFF
:101B6000176A1650935D146E17509459156E14062B
:101B7000000E155A090E1502F3CF15F01402F3CF1B
:101B800014F0F4501526F3CFE6FF15C0E6FFAF5171
:101B9000090D8B51F324186E8C51F420196E090E27
:101BA0001826000E192218C0E6FF19C0E6FFAF5133
:101BB000090D8B51F3241A6E8C51F4201B6E1AC040
:101BC000E6FFE66EDAEC2DF01C6E060EE15E1C50B0
:101BD0000B01000ED8809355000E945503E2930735
:101BE000000E945B280ED8809855000E995502E39C
:101BF0002BEF14F022EC04F00B010A0EDFEF12F0D1
:101C0000982B000E9923040EAE03F328146E935103
:101C1000145C000E94552EE2270EE66E540EE66E0E
:101C2000E66AE66A1AEC1BF0E552E552E552E55227
:101C3000040E0B01AE03F328090D8B51F324E96E5A
:101C40008C51F420EA6EEECF14F0EFCF15F0166A47
:101C5000176A14C0E6FF15C0E6FF16C0E6FF17C0FE
:101C6000E6FF030EE66EE66AF3EC19F0186E060E58
:101C7000E15E1850040E0B01AE03F350020F146E18
:101C80009351145C000E945530E2230EE66E540E10
:101C9000E66E080EE66EE66A1AEC1BF0E552E552B7
:101CA000E552E552040E0B01AE03F350020F090D8D
:101CB0008B51F324E96E8C51F420EA6EEECF14F0D0
:101CC000EFCF15F0166A176A14C0E6FF15C0E6FFDD
:101CD00016C0E6FF17C0E6FF0B0EE66EE66AF3ECF1
:101CE00019F0186E060EE15E1850040E0B01AE03DB
:101CF000F350030F146E9351145C000E945531E2AF
:101D00001F0EE66E540EE66EE66A010EE66E1AECE3
:101D10001BF0E552E552E552E552040E0B01AE030D
:101D2000F350030F090D8B51F324E96E8C51F4200D
:101D3000EA6EEECF14F0EFCF15F0166A176A14C0F2
:101D4000E6FF15C0E6FF16C0E6FF17C0E6FF030E6C
:101D5000E66E010EE66EF3EC19F0186E060EE15E0B
:101D60001850040E0B01AE03F350040F146E935180
:101D7000145C000E945532E21B0EE66E540EE66EB5
:101D8000080EE66E010EE66E1AEC1BF0E552E55207
:101D9000E552E552040E0B01AE03F350040F090D9A
:101DA0008B51F324E96E8C51F420EA6EEECF14F0DF
:101DB000EFCF15F0166A176A14C0E6FF15C0E6FFEC
:101DC00016C0E6FF17C0E6FF0B0EE66E010EE66ECC
:101DD000F3EC19F0186E060EE15E1850F7EC04F003
:101DE00000090BE00B01AD05AE5D04E2AE29AE6F5C
:101DF000A5EC18F00B01986B996B07EC05F0000946
:101E00000AE00B01AE51000803E30A0E976F01D000
:101E1000AE0722EC04F0CEEC04F000095AE00C010D
:101E200020050EE1040E0B01AE03F328146E93514E
:101E3000145C000E945504E2040EAE03F3283ED069
:101E4000020E0C01205D10E1040E0B01AE03F350F5
:101E5000020F146E9351145C000E945505E2040EAB
:101E6000AE03F350020F2AD0030E0C01205D10E1E7
:101E7000040E0B01AE03F350030F146E9351145C68
:101E8000000E945505E2040EAE03F350030F16D076
:101E9000040E0C01205D10E1040E0B01AE03F350A3
:101EA000040F146E9351145C000E945505E2040E59
:101EB000AE03F350040F02D00B010F0EAF6F0F0EE5
:101EC000AF5D04E0130E976F22EC04F00B01986BEA
:101ED000996B0B012C0ED8809855010E995502E391
:101EE0002BEF14F08BD0982B000E9923EA0EE66EA0
:101EF000530EE66EE66AE66A1AEC1BF0E552E5520E
:101F0000E552E5520B01AF51090D8B51F324E96EF7
:101F10008C51F420EA6EEECF14F0EFCF15F0166A74
:101F2000176A14C0E6FF15C0E6FF16C0E6FF17C02B
:101F3000E6FF0B0EE66EE66AF3EC19F0186E060E7D
:101F4000E15E1850CEEC04F000093AE0410E0C01BD
:101F5000205D14E10B018F5100082FE28F073C0E2A
:101F6000E66E550EE66E8FCBE6FF010EE66E1AECBE
:101F70001BF0E552E552E552E5521FD00A0E205DF6
:101F80001CE2060E0B018F5D18E20E0EE66E550E7A
:101F9000E66E8FCBE6FF010EE66E1AEC1BF0E55203
:101FA000E552E552E5520B018F51EA6A210FE96EC5
:101FB0000C0EEA2220CCEFFF8F2B0B01986B996B54
:101FC000F7EC04F0000908E0060E0B018F5D04E356
:101FD000140E976F22EC04F007EC05F0000905E001
:101FE0000B010F0E976F22EC04F00B012C0ED88022
:101FF0009855010E995502E32BEF14F00A0EAAD35F
:10200000982B000E99238F0EE66E540EE66EE66A4C
:1020100045EC1BF0E552E552E5520B01010E981913
:1020200023E1995121E1060EE66EE66A210EE66E85
:102030000C0EE66EAF51090D8B51F324E96E8C51F5
:10204000F420EA6E020EE926000EEA22E9CF14F02F
:10205000EACF15F0E9CFE6FFEACFE6FFDAEC2DF0A4
:10206000166E060EE15E16500B01280ED8809855AC
:10207000000E995501E3EFD30A0E9ED3982B000E64
:102080009923A951040A3FE0070A1BE0010A15E061
:10209000030A0FE0010A55E1DD0EE66E530EE66E0F
:1020A000E66A45EC1BF0E552E552E552030EE66E9A
:1020B00013D0CD0EE66E530E07D0BD0EE66E530E56
:1020C00003D0AD0EE66E530EE66EE66A45EC1BF0ED
:1020D000E552E552E552E66AE66A010EE66EC8ECA4
:1020E00019F0E552E552E552020EE66E070EE66E75
:1020F000010EE66EC8EC19F0E552E552E552010E0C
:10210000E66E0E0E16D09C0EE66E530EE66EE66A76
:1021100045EC1BF0E552E552E552E66AE66A010E2F
:10212000E66EC8EC19F0E552E552E552020EE66E95
:10213000070EE66E010EE66EC8EC19F0E552E552A8
:10214000E552F7EC04F0000909E00B01A92B050E9C
:10215000A95D02E3040EA96F22EC04F007EC05F080
:1021600000090AE00B01A951000803E3080E976F6C
:1021700001D0A90722EC04F0FFEC04F001080EE105
:102180000B01A951EA6AA40FE96E0B0EEA22EFCF08
:1021900097FB22EC04F00B01B36BB46BCEEC04F0B4
:1021A000000903E00B01986B996B0B012C0ED88092
:1021B0009855010E995501E34ED3080E00D2982B85
:1021C000000E9923010E981904E1995102E12AECBD
:1021D00004F0930EE66E530EE66EE66AE66A1AECBB
:1021E0001BF0E552E552E552E5528A0EE66E530EBB
:1021F000E66E080EE66EE66A1AEC1BF0E552E55252
:10220000E552E55274CB14F075CB15F0166A176AD7
:1022100074CBE6FF75CBE6FF16C0E6FF17C0E6FFFE
:102220000D0EE66EE66AF3EC19F0186E060EE15E2E
:102230001850880EE66E530EE66EE66A010EE66EE4
:102240001AEC1BF0E552E552E552E55278CB14F05A
:1022500079CB15F0166A176A78CBE6FF79CBE6FFE3
:1022600016C0E6FF17C0E6FF020EE66E010EE66E30
:10227000F3EC19F0186E060EE15E18507F0EE66E54
:10228000530EE66E080EE66E010EE66E1AEC1BF0BB
:10229000E552E552E552E55276CB14F077CB15F0D6
:1022A000166A176A76CBE6FF77CBE6FF16C0E6FF25
:1022B00017C0E6FF0C0EE66E010EE66EF3EC19F0A9
:1022C000186E060EE15E185007EC05F0000905E0F7
:1022D0000B011E0E976F22EC04F00B012C0ED88020
:1022E0009855010E995501E3B6D27FD2982B000E76
:1022F0009923010E98190EE199510CE1B30EE66E87
:102300000B0EE66EE66A46EC00F0E552E552E55249
:10231000D3EC01F0F7EC04F0000906E00B01B32B5D
:10232000000EB423986B996B07EC05F0000911E0DF
:102330000B01000ED880B355000EB45505E31E0EF8
:10234000976FB36BB46B03D0B307000EB45B22EC92
:1023500004F00B012C0ED8809855010E995501E31D
:102360007AD2976B14EC04F00B01B36BB46B73D29D
:10237000982B000E9923010E98190FE199510DE148
:10238000B50EE66E0B0EE66E010EE66E46EC00F044
:10239000E552E552E552D3EC01F0F7EC04F0000908
:1023A00006E00B01B52B000EB623986B996B07EC7A
:1023B00005F0000911E00B01000ED880B555000EA4
:1023C000B65505E31E0E976FB56BB66B03D0B50718
:1023D000000EB65B22EC04F00B012C0ED880985551
:1023E000010E995501E337D2976B14EC04F00B0101
:1023F000B56BB66B30D2982B000E9923010E98194D
:102400000FE199510DE1B70EE66E0B0EE66E020E6E
:10241000E66E46EC00F0E552E552E552D3EC01F0F1
:10242000F7EC04F0000906E00B01B72B000EB8230F
:10243000986B996B07EC05F0000911E00B01000E99
:10244000D880B755000EB85505E31E0E976FB76BD1
:10245000B86B03D0B707000EB85B22EC04F00B0199
:102460002C0ED8809855010E995501E3F4D1976B45
:1024700014EC04F00B01B76BB86BEDD1982B000E88
:102480009923700EE66E530EE66EE66A45EC1BF07D
:10249000E552E552E5520B01010E981904E19951FC
:1024A00002E17DEC04F00B01280E985D000E9959B5
:1024B00001E2D1D11E0E80D1982B000E9923AC5190
:1024C000010A25E0010A41E1600EE66E530EE66E58
:1024D000E66A45EC1BF0E552E552E552030EE66E66
:1024E000E66A010EE66EC8EC19F0E552E552E552D7
:1024F000020EE66E070EE66E010EE66EC8EC19F0EF
:10250000E552E552E552010EE66E0E0E16D0500E63
:10251000E66E530EE66EE66A45EC1BF0E552E552B8
:10252000E552E66AE66A010EE66EC8EC19F0E5527D
:10253000E552E552020EE66E070EE66E010EE66EFD
:10254000C8EC19F0E552E552E552F7EC04F0000949
:1025500009E00B01AC2B020EAC5D02E3010EAC6F87
:1025600022EC04F007EC05F000090AE00B01AC5185
:10257000000803E3080E976F01D0AC0722EC04F0CB
:10258000FFEC04F001080BE10B01AC51EA6AAA0F61
:10259000E96E0B0EEA22EFCF97FB22EC04F0CEECB3
:1025A00004F0000903E00B01986B996B0B012C0EF2
:1025B000D8809855010E995501E34DD1080E976FBB
:1025C0004AD1982B000E9923E6EC1DF0CEEC04F0D6
:1025D000000903E00B01986B996B07EC05F000090B
:1025E00008E00B011F0E976F0C01010E476F22ECE4
:1025F00004F00B012C0ED8809855010E995501E37B
:102600002AD120D0982B000E9923FBEC1EF0CEECA3
:1026100004F0000903E00B01986B996B07EC05F0DF
:10262000000908E00B011F0E976F0C01010E476FA8
:1026300022EC04F00B012C0ED8809855010E995510
:1026400001E309D1976B0C01010E476F04D1982B60
:10265000000E9923010E98195EE199515CE1E66A3A
:10266000FEEC2BF0E5520B01736F010EE66EFEECF3
:102670002BF0E5520B01726F020EE66EFEEC2BF0B2
:10268000E5520B01716F0C014E510B01D880715551
:1026900016E30C014E510B01715D28E10C014F5105
:1026A0000B01D88072550BE30C014F510B01725D89
:1026B0001DE10C0150510B01D880735517E2090E32
:1026C000086E096A91CB0DF092CB0EF06DEC2DF0F7
:1026D0000B018B510624E96E8C510720EA6E080E1F
:1026E000E926000EEA22010EEF6E15D0090E086EE3
:1026F000096A91CB0DF092CB0EF06DEC2DF00B0131
:102700008B510624E96E8C510720EA6E080EE926EB
:10271000000EEA22EF6A7A050EE13F0EE66E530ED6
:10272000E66EE66AE66A1AEC1BF0E552E552E552FF
:10273000E552B6EC04F00B017A5104E1180E976FE4
:1027400014EC04F00B01280E985D000E995901E27B
:1027500082D0180E976F14EC04F07DD0982B000EE9
:102760009923320EE66E530EE66EE66A45EC1BF0D8
:10277000E552E552E5521E0EE66E530EE66E010E70
:10278000E66E45EC1BF0E552E552E552C8EC04F06C
:102790000B017A6BF7EC04F0000907E014EC04F08D
:1027A0000B01050E976F8D6B8E6B0B01640E985DA0
:1027B000000E995950E3200E976F22EC04F04BD095
:1027C000982B000E9923110EE66E530EE66EE66A04
:1027D00045EC1BF0E552E552E552BFEC04F00B016D
:1027E000280E985D000E995936E3976B34D0982BDC
:1027F000000E9923000EE66E530EE66EE66AE66A58
:102800001AEC1BF0E552E552E552E55298CB14F074
:1028100099CB15F00A0E0D6E0E6A98CB08F099CB85
:1028200009F0E7EC2EF004C014F005C015F0050E19
:10283000045C000E055804E2E66AB2EC28F003D00E
:10284000E66ADAEC28F0E5520B01280E985D000EDE
:10285000995901E3976B020EE15C02E2E16AE552ED
:0A286000E16EE552E7CFD9FF120048
:06286A00D9CFE6FFE1CF2B
:10287000D9FF040EE126DE6ADD6ADECF14F0DDCF7B
:1028800015F0166A176A15AE02D016681768D95087
:10289000FB0FE96EFF0EDA20EA6EEE50145CEE508C
:1028A0001558EE501658EE5017581DE2020EDB6A0E
:1028B000030EDB6A020EDBCF14F0030EDBCF15F044
:1028C000D890155004E6050E145C000E155806E26B
:1028D000020EDB2A030EEEE3DB2AECD7DF2A010E21
:1028E000CCE3DB2ACAD7040EE15C02E2E16AE552DE
:1028F000E16EE552E7CFD9FF1200D9CFE6FFE1CF75
:10290000D9FF040EE126DE6ADD6ADECF14F0DDCFEA
:1029100015F0166A176A15AE02D016681768D950F6
:10292000FB0FE96EFF0EDA20EA6EEE50145CEE50FB
:102930001558EE501658EE5017581DE2020EDB6A7D
:10294000030EDB6A020EDBCF14F0030EDBCF15F0B3
:10295000D890155004E6EE0E145C000E155806E2F1
:10296000020EDB2A030EEEE3DB2AECD7DF2A010E90
:10297000CCE3DB2ACAD7040EE15C02E2E16AE5524D
:10298000E16EE552E7CFD9FF1200D9CFE6FFE1CFE4
:10299000D9FF0F0E8116FE0EDB50F00B81128186DF
:1029A000010EE66EE66AE66AE66AA7DFE552E552E0
:1029B000E552E5528196010EE66EE66AE66AE66A3F
:1029C0009CDFE552E552E552E5520F0E8116FE0EF0
:1029D000DB38F00B81128186010EE66EE66AE66A4C
:1029E000E66A8BDFE552E552E552E5528196010E2B
:1029F000E66EE66AE66AE66A80DFE552E552E5528F
:102A0000E552E552E7CFD9FF1200D9CFE6FFE1CF7B
:102A1000D9FFE652190EE66EE66AE66AE66A6DDFEF
:102A2000E552E552E552E5520F0E8116F80E811679
:102A30000F0E8116300E81128186010EE66EE66A57
:102A4000E66AE66A5ADFE552E552E552E5528196BA
:102A5000010EE66EE66AE66AE66A4FDFE552E55287
:102A6000E552E5520F0E8116300E81128186010E5D
:102A7000E66EE66AE66AE66A40DFE552E552E5524E
:102A8000E5528196010EE66EE66AE66AE66A35DF91
:102A9000E552E552E552E5520F0E8116300E8112D5
:102AA0008186010EE66EE66AE66AE66A26DFE55290
:102AB000E552E552E5528196010EE66EE66AE66A57
:102AC000E66A1BDFE552E552E552E5520F0E81162C
:102AD000818A8186010EE66EE66AE66AE66A0DDFA5
:102AE000E552E552E552E5528196010EE66EE66A40
:102AF000E66AE66A02DFE552E552E552E552280E43
:102B0000E66E43DFE5520C0EE66E3FDFE552E5521E
:102B1000E552E7CFD9FF1200D9CFE6FFE1CFD9FFC9
:102B2000020EE126DF6A010EDB6A81940F0EE66E6B
:102B3000E66AE66AE66A99DEE552E552E552E55252
:102B40000F0E81128186E66EE66AE66AE66A8DDE1F
:102B5000E552E552E552E5520F0E8114E76E010E83
:102B6000E7CFDBFF81960F0EE66EE66AE66AE66A5D
:102B70007CDEE552E552E552E5520F0E8112818668
:102B8000E66EE66AE66AE66A70DEE552E552E5520E
:102B9000E5520F0E8114DF6E010EDB50DF128196BD
:102BA000010EE66EE66AE66AE66A5FDEE552E55227
:102BB000E552E552DF50146E020EE15C02E2E16A7A
:102BC000E552E16E1450E552E7CFD9FF1200D9CF9C
:102BD000E6FFE1CFD9FFE652DF6A9EDFDF6EDFBEA0
:102BE000FCD7DF50E552E552E7CFD9FF1200D9CF2D
:102BF000E6FFE1CFD9FF0F0E8116FE0EDB508112EA
:102C00008186050EE66EE66AE66AE66A2EDEE55223
:102C1000E552E552E5528196050EE66EE66AE66AF1
:102C2000E66A23DEE552E552E552E552E552E7CF8A
:102C3000D9FF1200D9CFE6FFE1CFD9FF8194050E6D
:102C4000E66EE66AE66AE66A10DEE552E552E552AD
:102C5000E552FE0EDBCFE6FFCADFE552FE0EDB38A3
:102C6000F00BE66EC4DFE552E552E7CFD9FF120064
:102C7000D9CFE6FFE1CFD9FF8184050EE66EE66A83
:102C8000E66AE66AF2DDE552E552E552E552FE0EED
:102C9000DBCFE6FFACDFE552FE0EDB38F00BE66E75
:102CA000A6DFE5528194E552E7CFD9FF1200D9CFD4
:102CB000E6FFE1CFD9FFFE0EDBCFE6FFD9DFE5521D
:102CC000E552E7CFD9FF1200D9CFE6FFE1CFD9FF18
:102CD000FE0EDBCFE6FFCCDFE552E552E7CFD9FFB2
:102CE0001200D9CFE6FFE1CFD9FFFD0EDBCFF6FF13
:102CF000FE0EDBCFF7FF0800F5500FE0FD0EDBCF37
:102D0000F6FFDB2AFE0EDBCFF7FF01E3DB2A08002C
:102D1000F550E66ED9DFE552E8D7E552E7CFD9FFA7
:102D20001200D9CFE6FFE1CFD9FFE652FD0EDB500E
:102D30000F0B146EFE0EDB50010B400DF3501424EC
:102D4000DF6E7F0EDF14800FDF6EDFCFE6FF72DFF6
:102D5000E552E552E552E7CFD9FF1200010EE66ECB
:102D600069DFE552E66AE66ADCDFE552E552120009
:102D7000D9CFE6FFE1CFD9FF050EE126010EF36EB4
:102D8000DB6E020EDB6A030EDB6A040EDB6ADF6AAF
:102D9000DFCF14F0156A14BE1568FB0EDBCF16F0FA
:102DA000FC0EDBCF17F015501718E8AE02D0173421
:102DB00004D01650145C175015582DE2FD0EDBCFD1
:102DC00014F0FE0EDBCF15F0166A176A15AE02D0AE
:102DD00016681768D950010FE96EDACFEAFF14C000
:102DE0000BF015C00CF016C00DF017C00EF0EECFB2
:102DF00006F0EECF07F0EECF08F0EFCF09F06EEC63
:102E00002EF005C0EDFF04C0EDFF03C0EDFF02C0D2
:102E1000EFFFDF2ABDD7010EDBCF14F0020EDBCFB0
:102E200015F0030EDBCF16F0040EDBCF17F014C045
:102E300006F015C007F016C008F017C009F0050E1F
:102E4000E15C02E2E16AE552E16EE552E7CFD9FFCB
:102E50001200D9CFE6FFE1CFD9FF020EE126DF6AEB
:102E6000FB0EDBCF14F0FC0EDBCF15F0FD0EDBCF3D
:102E700016F0FE0EDBCF17F01450151016101710B9
:102E800005E1300EE66E20DFE552F4D0D950FB0F9D
:102E9000E96EFF0EDA20EA6ED890030EEB50000ABE
:102EA00008E6000EEE5C000EEE58000EEE58000E26
:102EB000EE5815E22D0EE66E07DFE552D950FB0FF6
:102EC000E96EFF0EDA20EA6E000EEE6CEF1EEE22C7
:102ED000EF1EEE22EF1EEF22ED52ED52ED52DE52CA
:102EE000070EDD6E010EDBCF14F0000EE76E141836
:102EF000E8AE02D0143403D0E750D880145401E374
:102F0000B9D0010EDB04186E196A18BE196818C012
:102F1000E6FF19C0E6FF0A0EE66EE66A29DFE55213
:102F2000E552E552E55206C014F007C015F008C09E
:102F300016F009C017F006C00BF007C00CF008C06F
:102F40000DF009C00EF0FB0EDBCF06F0FC0EDBCF60
:102F500007F0FD0EDBCF08F0FE0EDBCF09F0A6EC8C
:102F60002EF0065007100810091041E0010EDF6E28
:102F7000DB041C6E1D6A1CBE1D681CC0E6FF1DC064
:102F8000E6FF0A0EE66EE66AF3DEE552E552E5522A
:102F9000E55206C018F007C019F008C01AF009C0C1
:102FA0001BF006C00BF007C00CF008C00DF009C004
:102FB0000EF0FB0EDBCF06F0FC0EDBCF07F0FD0EB4
:102FC000DBCF08F0FE0EDBCF09F0A6EC2EF006C03A
:102FD00014F007C015F008C016F009C017F0300E45
:102FE0001426000E152216221722145003D0DF508B
:102FF00004E0300EE66E68DEE552010EDB04186E6A
:10300000196A18BE196818C0E6FF19C0E6FF0A0E53
:10301000E66EE66AADDEE552E552E552E55206C0DF
:1030200014F007C015F008C016F009C017F0D95009
:10303000FB0FE96EFF0EDA20EA6E06C00BF007C048
:103040000CF008C00DF009C00EF0EECF06F0EECF88
:1030500007F0EECF08F0EFCF09F0A6EC2EF005C098
:10306000EDFF04C0EDFF03C0EDFF02C0EFFF010E56
:10307000DB0638D7020EE15C02E2E16AE552E16E5E
:10308000E552E7CFD9FF1200D9CFE6FFE1CFD9FF54
:10309000FD0EDBCFE6FFFE0EDBCFE6FF42DEE552A4
:1030A000E552D950F90FE96EFF0EDA20EA6EEECF45
:1030B000E6FFEECFE6FFEECFE6FFEFCFE6FFC9DE9D
:1030C000E552E552E552E552E552E7CFD9FF12004D
:1030D000D9CFE6FFE1CFD9FFFD0EDBCFE6FFFE0E35
:1030E000DBCFE6FF1EDEE552E552FB0EDBCFE6FF4F
:1030F000FC0EDBCFE6FFF5DDE552E552E552E7CF0A
:10310000D9FF1200D9CFE6FFE1CFD9FF7BCF14F072
:103110007CCF15F0040ED89014361536E806FBE186
:10312000410E14260F0E152214500F017D25E96E55
:1031300015507E21EA6EFE0EDBCFEFFF7D2B000ED9
:103140007E23E552E7CFD9FF1200D9CFE6FFE1CFCA
:10315000D9FFE652DF6ADFCF14F0100EE76E1418C5
:10316000E8AE02D0E73402D0E750145C18E2DFCFBB
:10317000E9FFEA6AE9BEEA68410EE9260F0EEA2293
:10318000200EEF6EDFCFE9FFEA6AE9BEEA68510E72
:10319000E9260F0EEA22200EEF6EDF2ADCD7E55279
:1031A000E552E7CFD9FF1200D9CFE6FFE1CFD9FF33
:1031B000E6520F014051030A52E0010A36E0030AC9
:1031C0001AE0010A67E1E66AE66AABDDE552E5521C
:1031D000DF6A080EDF5C0CE2DF50EA6A410FE96E3D
:1031E0000F0EEA22EF50E66E6FDDE552DF2AF1D7CF
:1031F0000F01010E32D0080EE66EE66A92DDE5524E
:10320000E552DF6A080EDF5C0DE2080EDF24EA6A91
:10321000410FE96E0F0EEA22EF50E66E55DDE552E2
:10322000DF2AF0D70F01020E18D0E66A010EE66E13
:1032300078DDE552E552DF6A080EDF5C0CE2DF5014
:10324000EA6A510FE96E0F0EEA22EF50E66E3CDD9E
:10325000E552DF2AF1D70F01030E406F1CD0080E94
:10326000E66E010EE66E5DDDE552E552DF6A080EA0
:10327000DF5C0DE2080EDF24EA6A510FE96E0F0EE3
:10328000EA22EF50E66E20DDE552DF2AF0D70F018B
:10329000406B01D0406BE552E552E7CFD9FF1200F9
:1032A000D9CFE6FFE1CFD9FFE6520F014051010A25
:1032B0001BE0010A32E1E66AE66A33DDE552E552D7
:1032C000DF6A100EDF5C0CE2DF50EA6A410FE96E44
:1032D0000F0EEA22EF50E66EF7DCE552DF2AF1D757
:1032E0000F01010E406F1AD0E66A010EE66E19DD7D
:1032F000E552E552DF6A100EDF5C0CE2DF50EA6A4D
:10330000510FE96E0F0EEA22EF50E66EDDDCE5525A
:10331000DF2AF1D70F01406B01D0406BE552E55237
:10332000E7CFD9FF1200D9CFE6FFE1CFD9FFE652B0
:10333000E66AE66AF6DCE552E552DF6A100EDF5C0B
:103340000CE2DF50EA6A410FE96E0F0EEA22EF50FD
:10335000E66EBADCE552DF2AF1D7E66A010EE66EC8
:10336000E0DCE552E552DF6A100EDF5C0CE2DF5074
:10337000EA6A510FE96E0F0EEA22EF50E66EA4DC06
:10338000E552DF2AF1D7E552E552E7CFD9FF120027
:10339000D9CFE6FFE1CFD9FFFE0EDB50010B0F01C5
:1033A0007B6F7C6BFD0EDB500F0B7D6F7E6B7BCFDD
:1033B00014F07CCF15F0040ED89014361536E806BC
:1033C000FBE1410E14260F0E152214500F017D252E
:1033D000E96E15507E21EA6EFC0EDBCFEFFFE55261
:1033E000E7CFD9FF1200D9CFE6FFE1CFD9FF020E18
:1033F000E126DF6AFE0EDB50010B0F017B6F7C6B59
:10340000FD0EDB500F0B7D6F7E6BF90EDBCF14F0E2
:10341000FA0EDBCF15F0FB0EDBCF16F0FC0EDBCF88
:1034200017F0145015101610171005E1300EE66E47
:1034300069DEE552F5D0D950F90FE96EFF0EDA20BA
:10344000EA6ED890030EEB50000A08E6000EEE5C20
:10345000000EEE58000EEE58000EEE5815E22D0E3E
:10346000E66E50DEE552D950F90FE96EFF0EDA2014
:10347000EA6E000EEE6CEF1EEE22EF1EEE22EF1E45
:10348000EF22ED52ED52ED52DE52070EDD6E010ECF
:10349000DBCF14F0000EE76E1418E8AE02D014343F
:1034A00003D0E750D880145401E3BAD0010EDB04F6
:1034B000186E196A18BE196818C0E6FF19C0E6FF31
:1034C0000A0EE66EE66A54DCE552E552E552E55234
:1034D00006C014F007C015F008C016F009C017F0B8
:1034E00006C00BF007C00CF008C00DF009C00EF0CC
:1034F000F90EDBCF06F0FA0EDBCF07F0FB0EDBCFC9
:1035000008F0FC0EDBCF09F0A6EC2EF006500710F9
:103510000810091041E0010EDF6EDB041C6E1D6A0D
:103520001CBE1D681CC0E6FF1DC0E6FF0A0EE66E4D
:10353000E66A1EDCE552E552E552E55206C018F097
:1035400007C019F008C01AF009C01BF006C00BF044
:1035500007C00CF008C00DF009C00EF0F90EDBCF6B
:1035600006F0FA0EDBCF07F0FB0EDBCF08F0FC0E07
:10357000DBCF09F0A6EC2EF006C014F007C015F062
:1035800008C016F009C017F0300E1426000E1522E0
:1035900016221722145003D0DF5004E0300EE66EDE
:1035A000B1DDE552010EDB04186E196A18BE196808
:1035B00018C0E6FF19C0E6FF0A0EE66EE66AB8EC30
:1035C00016F0E552E552E552E55206C014F007C088
:1035D00015F008C016F009C017F0D950F90FE96EC0
:1035E000FF0EDA20EA6E06C00BF007C00CF008C030
:1035F0000DF009C00EF0EECF06F0EECF07F0EECFE3
:1036000008F0EFCF09F0A6EC2EF005C0EDFF04C0E6
:10361000EDFF03C0EDFF02C0EFFF010EDB0637D761
:10362000020EE15C02E2E16AE552E16EE552E7CFAB
:10363000D9FF1200D9CFE6FFE1CFD9FFFE0EDB5054
:10364000010B0F017B6F7C6BFD0EDB500F0B7D6F51
:103650007E6BFB0EDBCFF6FFFC0EDBCFF7FF080027
:10366000F5500FE0FB0EDBCFF6FFDB2AFC0EDBCFC5
:10367000F7FF01E3DB2A0800F550E66E43DDE55273
:10368000E8D7E552E7CFD9FF1200D9CFE6FFE1CF67
:10369000D9FF020EE126DE6ADD6AFE0EDB50010B69
:1036A0000F017B6F7C6B7D6B7E6BDE6ADD6ADECF2C
:1036B00014F0DDCF15F0D890155004E6100E145C10
:1036C000000E15581EE2FC0EDBCFF6FFFD0EDBCF21
:1036D000F7FF0800F5500CE0FC0EDBCFF6FFDB2A0D
:1036E000FD0EDBCFF7FF01E3DB2A0800F55001D028
:1036F000200EE66E07DDE552DF2A010ED8E3DB2A55
:10370000D6D7020EE15C02E2E16AE552E16EE552D3
:10371000E7CFD9FF1200D9CFE6FFE1CFD9FF040EE2
:10372000E126DE6ADD6A020EDB6A030EDB6AFC0E4E
:10373000DB50080DF350E66ED950020FE96EDACF78
:10374000EAFFE552E750EE6EED6A400EE76E020EBC
:10375000DBCF14F0030EDBCF15F0E7501412020E8E
:1037600014C0DBFF030E15C0DBFF020EDBCFE6FF4C
:103770001AEC16F0E552DE6ADD6ADECF14F0DDCF1A
:1037800015F0080E145C000E155828E2FD0EDBCF74
:1037900014F0FE0EDBCF15F0DE501424E96EDD5080
:1037A0001520EA6EEF50E66E38EC16F0E552010E89
:1037B000E76E020EDBCF14F0030EDBCF15F0E750FF
:1037C0001426000E1522020E14C0DBFF030E15C0D6
:1037D000DBFFDF2A010ED1E3DB2ACFD7040EE15C49
:1037E00002E2E16AE552E16EE552E7CFD9FF12004D
:1037F000E66A000EE66E0F0EE66E8DDFE552E552CC
:10380000E552010EE66E080EE66E0F0EE66E83DFE1
:10381000E552E552E552020EE66E100EE66E0F0E10
:10382000E66E79DFE552E552E552030EE66E180EBC
:10383000E66E0F0EE66E6FDFE552E552E5521200BE
:103840000C01320E486F3B0E496F170E4A6F120083
:1038500020EF1CF00C014829146E3C0E156E0E6E04
:1038600014C009F01BEC2FF005C048FC0C010550FA
:1038700019E14929146E3C0E156E0E6E14C009F044
:103880001BEC2FF005C049FC0C0105500BE14A2947
:10389000146E180E156E0E6E14C009F01BEC2FF08E
:1038A00005C04AFC12000A0E0C014A5D1CE2980E8B
:1038B000E66E550EE66E040EE66EE66A1AEC1BF036
:1038C000E552E552E552E5524ACC14F0156A166A03
:1038D000176A4ACCE6FF15C0E6FF16C0E6FF17C020
:1038E000E6FF050E0ED04ACC14F0156A166A176A68
:1038F0004ACCE6FF15C0E6FF16C0E6FF17C0E6FF9C
:10390000040EE66EE66AF3EC19F0186E060EE15E40
:103910001850960EE66E550EE66E060EE66EE66AD8
:103920001AEC1BF0E552E552E552E5520A0E0C0185
:10393000495D1CE2980EE66E550EE66E070EE66EC9
:10394000E66A1AEC1BF0E552E552E552E55249CC25
:1039500014F0156A166A176A49CCE6FF15C0E6FF2F
:1039600016C0E6FF17C0E6FF080E0ED049CC14F0D3
:10397000156A166A176A49CCE6FF15C0E6FF16C03D
:10398000E6FF17C0E6FF070EE66EE66AF3EC19F0F5
:10399000186E060EE15E1850960EE66E550EE66E37
:1039A000090EE66EE66A1AEC1BF0E552E552E552A6
:1039B000E5520A0E0C01485D1CE2980EE66E550EAB
:1039C000E66E0A0EE66EE66A1AEC1BF0E552E55268
:1039D000E552E55248CC14F0156A166A176A48CCCD
:1039E000E6FF15C0E6FF16C0E6FF17C0E6FF0B0EA8
:1039F0000ED048CC14F0156A166A176A48CCE6FF58
:103A000015C0E6FF16C0E6FF17C0E6FF0A0EE66E19
:103A1000E66AF3EC19F0186E060EE15E185012001B
:103A2000D9CFE6FFE1CFD9FF0A0EF36EFE0EDBCF52
:103A3000F4FFF350F45C1DE2980EE66E550EE66E50
:103A4000040EE66EE66A1AEC1BF0E552E552E5520A
:103A5000E552FE0EDBCF14F0156A166A176A14C021
:103A6000E6FF15C0E6FF16C0E6FF17C0E6FF050E2D
:103A70000FD0FE0EDBCF14F0156A166A176A14C059
:103A8000E6FF15C0E6FF16C0E6FF17C0E6FF040E0E
:103A9000E66EE66AF3EC19F0186E060EE15E185059
:103AA000960EE66E550EE66E060EE66EE66A1AECA9
:103AB0001BF0E552E552E552E5520A0EF36EFD0E9B
:103AC000DBCFF4FFF350F45C1DE2980EE66E550E6A
:103AD000E66E070EE66EE66A1AEC1BF0E552E5525A
:103AE000E552E552FD0EDBCF14F0156A166A176A2F
:103AF00014C0E6FF15C0E6FF16C0E6FF17C0E6FFDC
:103B0000080E0FD0FD0EDBCF14F0156A166A176A87
:103B100014C0E6FF15C0E6FF16C0E6FF17C0E6FFBB
:103B2000070EE66EE66AF3EC19F0186E060EE15E1B
:103B30001850960EE66E550EE66E090EE66EE66AB3
:103B40001AEC1BF0E552E552E552E5520A0EF36E0F
:103B5000FC0EDBCFF4FFF350F45C1DE2980EE66E32
:103B6000550EE66E0A0EE66EE66A1AEC1BF0E5529A
:103B7000E552E552E552FC0EDBCF14F0156A166AE9
:103B8000176A14C0E6FF15C0E6FF16C0E6FF17C0AF
:103B9000E6FF0B0E0FD0FC0EDBCF14F0156A166A91
:103BA000176A14C0E6FF15C0E6FF16C0E6FF17C08F
:103BB000E6FF0A0EE66EE66AF3EC19F0186E060EE2
:103BC000E15E1850E552E7CFD9FF12000C014751D2
:103BD000060A01E1F1D0030A01E1ABD0010A66E077
:103BE000070A20E0010A16E0030A01E0EDD0850E85
:103BF000E66E550EE66E010EE66E45EC1BF0E552E4
:103C0000E552E55250DE3CDA000901E1DFD00C015B
:103C1000020EDBD048CC4DFC49CC4CFC4ACC4BFCD2
:103C2000030ED3D04DCCE6FF4CCCE6FF4BCCE6FFE9
:103C3000F7DEE552E552E5520B01B951BA1116E132
:103C4000BB51BC1113E10C010A0E515D000E52591B
:103C50000DE2820EE66E550EE66E040EE66EE66A24
:103C60001AEC1BF0E552E552E552E552CDD90009B8
:103C70000CE00C014B29146E180E156E0E6E14C05C
:103C800009F01BEC2FF005C04BFCDCD9000907E064
:103C90000C014B074B51170802E2170E4B6FF0D97E
:103CA000000901E193D00C01040E8FD04DCCE6FF4A
:103CB0004CCCE6FF4BCCE6FFB3DEE552E552E552D5
:103CC0000B01B951BA1116E1BB51BC1113E10C0142
:103CD0000A0E515D000E52590DE2820EE66E550E2F
:103CE000E66E070EE66EE66A1AEC1BF0E552E55248
:103CF000E552E55289D900090CE00C014C29146EFB
:103D00003C0E156E0E6E14C009F01BEC2FF005C0B2
:103D10004CFC98D9000907E00C014C074C513B08BA
:103D200002E23B0E4C6FACD9000950E00C01050ECD
:103D30004CD04DCCE6FF4CCCE6FF4BCCE6FF70DE22
:103D4000E552E552E5520B01B951BA1116E1BB51EA
:103D5000BC1113E10C010A0E515D000E52590DE227
:103D6000820EE66E550EE66E0A0EE66EE66A1AECF6
:103D70001BF0E552E552E552E55246D900090CE048
:103D80000C014D29146E3C0E156E0E6E14C009F018
:103D90001BEC2FF005C04DFC55D9000907E00C01C4
:103DA0004D074D513B0802E23B0E4D6F69D90009AA
:103DB0000DE00C01060E09D04DCC48FC4CCC49FC62
:103DC0004BCC4AFC010E01D0010E476F010E0C01D5
:103DD0005125516F000E5221526F140E0D6E0E6A56
:103DE00051CC08F052CC09F0E7EC2EF004C051FCA5
:103DF00005C052FC12000C014751050A01E1AAD08E
:103E0000010A65E0070A1FE0020A01E0E6D0850E1C
:103E1000E66E550EE66E010EE66E45EC1BF0E552C1
:103E2000E552E55250CCE6FF4FCCE6FF4ECCE6FF24
:103E3000F7DDE552E552E55223D9000901E1CFD083
:103E40000C01030ECBD050CCE6FF4FCCE6FF4ECC9E
:103E5000E6FFE6DDE552E552E5520B01B951BA1134
:103E600016E1BB51BC1113E10C010A0E515D000EAD
:103E700052590DE2820EE66E550EE66E040EE66EA7
:103E8000E66A1AEC1BF0E552E552E552E552BCD861
:103E900000090CE00C014E29146E180E156E0E6E02
:103EA00014C009F01BEC2FF005C04EFCCBD8000964
:103EB00007E00C014E074E51170802E2170E4E6F35
:103EC000DFD8000901E18BD00C01040E87D050CC63
:103ED000E6FF4FCCE6FF4ECCE6FFA2DDE552E55211
:103EE000E5520B01B951BA1116E1BB51BC1113E1F6
:103EF0000C010A0E515D000E52590DE2820EE66E63
:103F0000550EE66E070EE66EE66A1AEC1BF0E552F9
:103F1000E552E552E55278D800090CE00C014F2932
:103F2000146E3C0E156E0E6E14C009F01BEC2FF0D3
:103F300005C04FFC87D8000907E00C014F074F511F
:103F40003B0802E23B0E4F6F9BD8000948E00C0192
:103F5000050E44D050CCE6FF4FCCE6FF4ECCE6FF3A
:103F60005FDDE552E552E5520B01B951BA1116E198
:103F7000BB51BC1113E10C010A0E515D000E5259E8
:103F80000DE2820EE66E550EE66E0A0EE66EE66AEB
:103F90001AEC1BF0E552E552E552E55235D800091E
:103FA0000CE00C015029146E3C0E156E0E6E14C000
:103FB00009F01BEC2FF005C050FC44D8000907E0C5
:103FC0000C01500750513B0802E23B0E506F58D88D
:103FD000000905E00C01010E01D0010E476F010E32
:103FE0000C015125516F000E5221526F140E0D6EAF
:103FF0000E6A51CC08F052CC09F0E7EC2EF004C068
:1040000051FC05C052FC12000B01010EB91901E16F
:10401000BA5116E0140ED880B955000EBA5511E207
:10402000B9CB14F0BACB15F0050E0D6E0E6AB9CBF4
:1040300008F0BACB09F0E7EC2EF00450051001E1CE
:10404000010C000C0B01010EBB1901E1BC5116E083
:10405000140ED880BB55000EBC5511E2BBCB14F03A
:10406000BCCB15F0050E0D6E0E6ABBCB08F0BCCBB9
:1040700009F0E7EC2EF00450051001E1010C000CF2
:104080000B01010EBD1903E1BE5101E1010C000C51
:10409000B06A810EAF6EAC8AAC94B886AC98AB8E29
:1040A0009E9A9D8A9F9A949C1200B06A810EAF6E70
:1040B000AC9AAC94B896AC88AB9E9E9A9D9A9F9A07
:1040C0001200D9CFE6FFE1CFD9FF040EE126DE6A68
:1040D000DD6ADECF14F0DDCF15F0FD0EDBCF16F07C
:1040E000FE0EDBCF17F015501718E8AE02D01734CC
:1040F00004D01650145C175015581DE2020EDB6AEE
:10410000030EDB6A020EDBCF14F0030EDBCF15F0DB
:10411000D890155004E6EE0E145C000E155806E219
:10412000020EDB2A030EEEE3DB2AECD7DF2A010EB8
:10413000D0E3DB2ACED7040EE15C02E2E16AE5526D
:10414000E16EE552E7CFD9FF1200D9CFE6FFE1CF0C
:10415000D9FF9EA8FED7FE0EDB50AD6E9E98E552AD
:10416000E7CFD9FF1200D9CFE6FFE1CFD9FFFD0E8F
:10417000DBCFE9FFFE0EDBCFEAFFEF5010E0FD0ED4
:10418000DBCFE9FFFE0EDBCFEAFFEF50E66EDDDFAF
:10419000E552FD0EDB2AFE0EEAE3DB2AE8D7E55204
:1041A000E7CFD9FF1200D9CFE6FFE1CFD9FFFD0E4F
:1041B000DBCFF6FFFE0EDBCFF7FF0800F55015E072
:1041C000FD0EDBCFF6FFFE0EDBCFF7FF0800F5504C
:1041D000E66EBBDFE552FD0EDBCFF6FFDB2AFE0EFF
:1041E000DBCFF7FFE4E3DB2AE2D7E552E7CFD9FFE5
:1041F0001200D9CFE6FFE1CFD9FF050EE126010E6F
:10420000F36EDB6E020EDB6A030EDB6A040EDB6A02
:10421000DF6ADFCF14F0156A14BE1568FB0EDBCF22
:1042200016F0FC0EDBCF17F015501718E8AE02D0D1
:10423000173404D01650145C175015582DE2FD0E9B
:10424000DBCF14F0FE0EDBCF15F0166A176A15AE41
:1042500002D016681768D950010FE96EDACFEAFF6D
:1042600014C00BF015C00CF016C00DF017C00EF006
:10427000EECF06F0EECF07F0EECF08F0EFCF09F06B
:104280006EEC2EF005C0EDFF04C0EDFF03C0EDFFA6
:1042900002C0EFFFDF2ABDD7010EDBCF14F0020E04
:1042A000DBCF15F0030EDBCF16F0040EDBCF17F0DB
:1042B00014C006F015C007F016C008F017C009F0CA
:1042C000050EE15C02E2E16AE552E16EE552E7CFFC
:1042D000D9FF1200D9CFE6FFE1CFD9FF020EE126C8
:1042E000DF6AFB0EDBCF14F0FC0EDBCF15F0FD0E0A
:1042F000DBCF16F0FE0EDBCF17F0145015101610A2
:10430000171005E1300EE66E20DFE552F4D0D950EB
:10431000FB0FE96EFF0EDA20EA6ED890030EEB5029
:10432000000A08E6000EEE5C000EEE58000EEE5895
:10433000000EEE5815E22D0EE66E07DFE552D9505D
:10434000FB0FE96EFF0EDA20EA6E000EEE6CEF1E38
:10435000EE22EF1EEE22EF1EEF22ED52ED52ED5255
:10436000DE520A0EDD6E010EDBCF14F0000EE76E9A
:104370001418E8AE02D0143403D0E750D880145497
:1043800001E3B9D0010EDB04186E196A18BE196872
:1043900018C0E6FF19C0E6FF0A0EE66EE66A29DFDE
:1043A000E552E552E552E55206C014F007C015F09B
:1043B00008C016F009C017F006C00BF007C00CF0DB
:1043C00008C00DF009C00EF0FB0EDBCF06F0FC0EAE
:1043D000DBCF07F0FD0EDBCF08F0FE0EDBCF09F0E0
:1043E000A6EC2EF0065007100810091041E0010E4F
:1043F000DF6EDB041C6E1D6A1CBE1D681CC0E6FF60
:104400001DC0E6FF0A0EE66EE66AF3DEE552E552EF
:10441000E552E55206C018F007C019F008C01AF0BE
:1044200009C01BF006C00BF007C00CF008C00DF06F
:1044300009C00EF0FB0EDBCF06F0FC0EDBCF07F061
:10444000FD0EDBCF08F0FE0EDBCF09F0A6EC2EF060
:1044500006C014F007C015F008C016F009C017F028
:10446000300E1426000E152216221722145003D0E7
:10447000DF5004E0300EE66E68DEE552010EDB042C
:10448000186E196A18BE196818C0E6FF19C0E6FF51
:104490000A0EE66EE66AADDEE552E552E552E552F9
:1044A00006C014F007C015F008C016F009C017F0D8
:1044B000D950FB0FE96EFF0EDA20EA6E06C00BF052
:1044C00007C00CF008C00DF009C00EF0EECF06F0EA
:1044D000EECF07F0EECF08F0EFCF09F0A6EC2EF00C
:1044E00005C0EDFF04C0EDFF03C0EDFF02C0EFFF0C
:1044F000010EDB0638D7020EE15C02E2E16AE5520A
:10450000E16EE552E7CFD9FF1200D9CFE6FFE1CF48
:10451000D9FFFD0EDBCF14F0FE0EDBCF15F0640EDD
:104520000D6E0E6A14C008F015C009F0EDEC2CF009
:1045300008C014F009C015F0166A176A15AE02D04B
:104540001668176814C0E6FF15C0E6FF16C0E6FF40
:1045500017C0E6FFBFDEE552E552E552E5522E0EEA
:10456000E66EF3DDE552FD0EDBCF14F0FE0EDBCF81
:1045700015F0640E0D6E0E6A14C008F015C009F037
:10458000EDEC2CF004C014F005C015F0166A176AA3
:1045900015AE02D01668176814C0E6FF15C0E6FF16
:1045A00016C0E6FF17C0E6FF95DEE552E552E5527C
:1045B000E552E552E7CFD9FF1200D9CFE6FFE1CFB0
:1045C000D9FFE652AE50DF6EFC0EE66E520EE66E7E
:1045D000E66A010EE66E1AEC1BF0E552E552E55272
:1045E000E552DFCF14F0156A166A176A14C0E6FFA9
:1045F00015C0E6FF16C0E6FF17C0E6FFE66A010E2B
:10460000E66EF3EC19F0186E060EE15E1850E552F6
:08461000E552E7CFD9FF1200CB
:08461800D9CFE6FFE1CFD9FF85
:10462000D59EFD0EDBCF00FCFE0EDBCF01FCD59C42
:1046300017681868196A00CC1AF001CC1BF01C6AC4
:104640001A50175C146E1B501858156E1C501958D0
:10465000166E0C6A010E0D6E0E6A14C007F015C0BE
:1046600008F016C009F013EC2DF00350D66E176851
:104670001868196A00CC1AF001CC1BF01C6A1A5099
:10468000175C146E1B501858156E1C501958166E76
:104690000C6A010E0D6E0E6A14C007F015C008F00A
:1046A00016C009F013EC2DF007C014F008C015F087
:1046B00009C016F00750D76ED59AD586F28AF294C3
:1046C000F184D58EE552E7CFD9FF1200D59E1200B6
:1046D00017681868196A00CC1AF001CC1BF01C6A24
:1046E0001A50175C146E1B501858156E1C50195830
:1046F000166E0C6A010E0D6E0E6A14C007F015C01E
:1047000008F016C009F013EC2DF00350D66E1768B0
:104710001868196A00CC1AF001CC1BF01C6A1A50F8
:10472000175C146E1B501858156E1C501958166ED5
:104730000C6A010E0D6E0E6A14C007F015C008F069
:1047400016C009F013EC2DF007C014F008C015F0E6
:1047500009C016F00750D76ED58E1200D9CFE6FFEC
:10476000E1CFD9FFCD90FD0EDBCF02FCFE0EDBCFFB
:1047700003FC17681868196A02CC1AF003CC1BF006
:104780001C6A1A50175C146E1B501858156E1C507A
:104790001958166E0C6A010E0D6E0E6A14C007F0E1
:1047A00015C008F016C009F013EC2DF00750CF6EBD
:1047B00017681868196A02CC1AF003CC1BF01C6A3F
:1047C0001A50175C146E1B501858156E1C5019584F
:1047D000166E0C6A010E0D6E0E6A14C007F015C03D
:1047E00008F016C009F013EC2DF003C014F004C05B
:1047F00015F005C016F00350CE6E9D809E909F90E0
:10480000CD8ECD8CCD98CD9ACD96CD92CD80E552E2
:10481000E7CFD9FF120017681868196A02CC1AF09E
:1048200003CC1BF01C6A1A50175C146E1B501858EE
:10483000156E1C501958166E0C6A010E0D6E0E6A1C
:1048400014C007F015C008F016C009F013EC2DF0E5
:104850000750CF6E17681868196A02CC1AF003CC9B
:104860001BF01C6A1A50175C146E1B501858156EFA
:104870001C501958166E0C6A010E0D6E0E6A14C08B
:1048800007F015C008F016C009F013EC2DF003C0B6
:1048900014F004C015F005C016F00350CE6ECD80A4
:1048A0001200CD901200D9CFE6FFE1CFD9FFCA9414
:1048B000CC6AFE0EDB500C01046F056BCB6E9D8243
:1048C0009E929F92CA90CA92CA84E552E7CFD9FFBE
:1048D000120004CCCBFFCA841200CA941200D9CFB4
:1048E000E6FFE1CFD9FFB190FD0EDBCF06FCFE0E57
:1048F000DBCF07FC17681868196A06CC1AF007CCDA
:104900001BF01C6A1A50175C146E1B501858156E59
:104910001C501958166E0C6A010E0D6E0E6A14C0EA
:1049200007F015C008F016C009F013EC2DF0075081
:10493000B36E17681868196A06CC1AF007CC1BF01A
:104940001C6A1A50175C146E1B501858156E1C50B8
:104950001958166E0C6A010E0D6E0E6A14C007F01F
:1049600015C008F016C009F013EC2DF003C014F0C8
:1049700004C015F005C016F00350B26EA082A192DB
:10498000A292B18EB198B19AB192B180E552E7CFBF
:10499000D9FF120017681868196A06CC1AF007CCFC
:1049A0001BF01C6A1A50175C146E1B501858156EB9
:1049B0001C501958166E0C6A010E0D6E0E6A14C04A
:1049C00007F015C008F016C009F013EC2DF00350E5
:1049D000B26E17681868196A06CC1AF007CC1BF07B
:1049E0001C6A1A50175C146E1B501858156E1C5018
:1049F0001958166E0C6A010E0D6E0E6A14C007F07F
:104A000015C008F016C009F013EC2DF007C014F023
:104A100008C015F009C016F00750B36EB18012003F
:104A2000B19012000C01102B000E11231851105DD3
:104A30001951115904E3106B116B010E086F12002C
:104A40000C01122B000E13231A51125D1B51135926
:104A500004E3126B136B010E096F12000C01142B8F
:104A6000000E15231C51145D1D51155904E3146BE0
:104A7000156B010E0A6F12000C01162B000E172386
:104A80001E51165D1F51175904E3166B176B010E6B
:104A90000B6F1200D9CFE6FFE1CFD9FFFD0EDBCFC0
:104AA00018FCFE0EDBCF19FC0C01106B116B086BB0
:104AB000E552E7CFD9FF1200D9CFE6FFE1CFD9FF0A
:104AC000FD0EDBCF1AFCFE0EDBCF1BFC050E0D6EC0
:104AD0000E6A1ACC08F01BCC09F0EDEC2CF008C0E3
:104AE0001AFC09C01BFC0C01126B136B096BE5521D
:104AF000E7CFD9FF1200D9CFE6FFE1CFD9FFFD0EF6
:104B0000DBCF1EFCFE0EDBCF1FFC0A0E0D6E0E6A05
:104B10001ECC08F01FCC09F0EDEC2CF008C01EFCF8
:104B200009C01FFC0C01166B176B0B6BE552E7CF2E
:044B3000D9FF120097
:0C4B34000F0E946E82681200CF0E9414D5
:104B4000946E82681200D9CFE6FFE1CFD9FF050E3F
:104B5000E126040EDB6ADE6ADD6ADECF14F0DDCF0B
:104B600015F0D890155004E6040E145C000E15588C
:104B700001E390D0DECFE9FFDDCFEAFFD90EE926D1
:104B80000B0EEA22EF1C826E020EDB6A030EDB6A5A
:104B9000020EDBCF14F0030EDBCF15F0D8901550CA
:104BA00004E6040E145C000E15586EE2020EDBCF14
:104BB000E9FF030EDBCFEAFFDD0EE9260B0EEA224A
:104BC000EF5082143FE1DECF18F0DDCF19F0D8901E
:104BD00018361936D89018361936020EDB501824BC
:104BE000E96E030EDB501920EA6ED890E936EA36FA
:104BF000B90EE9260B0EEA22EECF16F0EFCF17F032
:104C0000010E1626000E1722DECF14F0DDCF15F0B0
:104C1000D89014361536D89014361536020EDB505F
:104C20001424E96E030EDB501520EA6ED890E936A5
:104C3000EA36B90EE9260B0EEA2216C0EEFF17C0BF
:104C4000EDFF1BD0DECF14F0DDCF15F0D890143679
:104C50001536D89014361536020EDB501424E96E42
:104C6000030EDB501520EA6ED890E936EA36B90E0D
:104C7000E9260B0EEA22EE6AED6A020EDB2A030E2B
:104C800001E286D7DB2A84D7DF2A010E01E265D74D
:104C9000DB2A63D7050EE15C02E2E16AE552E16ED0
:104CA000E552E7CFD9FF1200D9CFE6FFE1CFD9FF18
:104CB000050EE126040EDB6ADE6ADD6ADECF14F043
:104CC000DDCF15F0D890155004E6020E145C000EEE
:104CD000155801E399D0DECFE9FFDDCFEAFFD90E09
:104CE000E9260B0EEA22EF1C8214826E0F0E821050
:104CF000826E020EDB6A030EDB6A020EDBCF14F05B
:104D0000030EDBCF15F0D890155004E6040E145CAA
:104D1000000E155873E2020EDBCFE9FF030EDBCF66
:104D2000EAFFDD0EE9260B0EEA22EF50821444E181
:104D3000DECF18F0DDCF19F0D89018361936D8909C
:104D400018361936020EDB501824E96E030EDB50BC
:104D50001920EA6ED890E936EA36B90EE9260B0E2C
:104D6000EA22EECF16F0EFCF17F0010E1626000E56
:104D70001722DECF14F0DDCF15F0D890143615369B
:104D8000D89014361536020EDB501424E96E030E4B
:104D9000DB501520EA6ED890E936EA36B90EE926DE
:104DA0000B0EEA2216C0EEFF17C0EDFF010EF36EE8
:104DB000040EF3CFDBFF1BD0DECF14F0DDCF15F0F8
:104DC000D89014361536D89014361536020EDB50AE
:104DD0001424E96E030EDB501520EA6ED890E936F4
:104DE000EA36B90EE9260B0EEA22EE6AED6A020EE9
:104DF000DB2A030E01E281D7DB2A7FD7DF2A010EEF
:104E000001E25CD7DB2A5AD7040EDB0404E10B0174
:104E1000010EE16F02D00B01E16B050EE15C02E2D5
:104E2000E16AE552E16EE552E7CFD9FF1200D9CF32
:104E3000E6FFE1CFD9FF040EE126DE6ADD6ADECFB0
:104E400014F0DDCF15F0FD0EDBCF16F0FE0EDBCF3C
:104E500017F015501718E8AE02D0173404D01650CA
:104E6000145C175015581DE2020EDB6A030EDB6A54
:104E7000020EDBCF14F0030EDBCF15F0D8901550E7
:104E800004E6EE0E145C000E155806E2020EDB2A54
:104E9000030EEEE3DB2AECD7DF2A010ED0E3DB2A98
:104EA000CED7040EE15C02E2E16AE552E16EE55222
:104EB000E7CFD9FF1200D9CFE6FFE1CFD9FF040E2B
:104EC000E126DE6ADD6ADECF14F0DDCF15F0D89082
:104ED000155004E6040E145C000E155875E2DECF82
:104EE000E9FFDDCFEAFFD90EE9260B0EEA22EF1C1F
:104EF000826E020EDB6A030EDB6A020EDBCF14F059
:104F0000030EDBCF15F0D890155004E6040E145CA8
:104F1000000E15584AE2DECF14F0DDCF15F0D89020
:104F200014361536D89014361536020EDB5014247C
:104F3000E96E030EDB501520EA6ED890E936EA36AA
:104F4000B90EE9260B0EEA22EE6AED6A020EDBCFFD
:104F5000E9FF030EDBCFEAFFDD0EE9260B0EEA22A6
:104F6000EF5082141CE1DECF14F0DDCF15F0D890A5
:104F700014361536D89014361536020EDB5014242C
:104F8000E96E030EDB501520EA6ED890E936EA365A
:104F9000B90EE9260B0EEA22010EEE6EED6A020E44
:104FA000DB2A030EAAE3DB2AA8D78250816EE80E23
:104FB000E66E030EE66E3BDFE552E552DF2A010E98
:104FC00001E281D7DB2A7FD7040EE15C02E2E16ACD
:0C4FD000E552E16EE552E7CFD9FF120078
:044FDC00D9CFE6FF44
:104FE000E1CFD9FF020EE126DE6ADD6A7AD828EC2D
:104FF0001CF0E80EE66E030EE66E2FD8E552E55281
:105000000C010B51FDE00B6BDECF14F0DDCF15F082
:10501000010E1426000E1522140E0D6E0E6A14C019
:1050200008F015C009F0E7EC2EF004C014F005C03C
:1050300015F004C0DEFF05C0DDFFD9CFE9FFDACFF0
:10504000EAFFEE50ED1002E12AEC1CF0A3EC25F093
:105050000FEC05F0D4EC18F0D3D7D9CFE6FFE1CFB1
:10506000D9FF040EE126DE6ADD6ADECF14F0DDCF63
:1050700015F0FD0EDBCF16F0FE0EDBCF17F015504E
:105080001718E8AE02D0173404D01650145C17502D
:1050900015581DE2020EDB6A030EDB6A020EDBCF3F
:1050A00014F0030EDBCF15F0D890155004E6EE0E89
:1050B000145C000E155806E2020EDB2A030EEEE326
:1050C000DB2AECD7DF2A010ED0E3DB2ACED7040E91
:1050D000E15C02E2E16AE552E16EE552E7CFD9FF19
:1050E0001200936A956A05EC15F0A5EC18F0836A36
:1050F0000BEC2CF0E80EE66E030EE66EAEDFE5522A
:10510000E552570EE66E120EE66E0CEC23F0E552F9
:10511000E552AE0EE66E240EE66EAEEC23F0E552DE
:10512000E552660EE66EB70EE66E6FEC24F0E552C1
:10513000E552020EE66EE66A4AEC25F0E552E552CB
:105140000A0EE66EE66A5CEC25F0E552E552320E98
:10515000E66EE66A7BEC25F0E552E5529AEC25F026
:10516000F8EF1BF0D9CFE6FFE1CFD9FFFE0EDBCF82
:1051700015F0800E15141AE1FD0EDBCF16F0FE0EB1
:10518000DBCF17F0173404E216500708000E17544F
:105190000DE3FD0EDBCFE9FFFE0EDBCFEAFF370E9E
:1051A000E9260C0EEA22EF508310836EE552E7CF1A
:1051B000D9FF1200D9CFE6FFE1CFD9FFFE0EDBCF3A
:1051C00015F0800E15141AE1FD0EDBCF16F0FE0E61
:1051D000DBCF17F0173404E216500708000E1754FF
:1051E0000DE3FD0EDBCFE9FFFE0EDBCFEAFF370E4E
:1051F000E9260C0EEA22EF1C8314836EE552E7CFFA
:10520000D9FF1200D9CFE6FFE1CFD9FFFD0EDBCFEA
:10521000E9FFFE0EDBCFEAFF3F0EE9260C0EEA2285
:10522000EF0415E1FD0EDBCFE6FFFE0EDBCFE6FF60
:10523000C1DFE552E552FD0EDBCFE9FFFE0EDBCF0D
:10524000EAFF3F0EE9260C0EEA22EF6A15D0FD0EAA
:10525000DBCFE6FFFE0EDBCFE6FF84DFE552E55253
:10526000FD0EDBCFE9FFFE0EDBCFEAFF3F0EE926A6
:105270000C0EEA22010EEF6EE552E7CFD9FF1200C5
:10528000D9CFE6FFE1CFD9FF020EE126DE6ADD6A63
:10529000DECF14F0DDCF15F0153404E2145007080A
:1052A000000E155421E3DECFE6FFDDCFE6FF5ADF27
:1052B000E552E552F40EE66E010EE66ECEDEE552E4
:1052C000E552DECFE6FFDDCFE6FF74DFE552E552C3
:1052D000F40EE66E010EE66EC0DEE552E552DF2A00
:1052E000010ED6E3DB2AD4D7020EE15C02E2E16ACA
:0C52F000E552E16EE552E7CFD9FF120055
:0452FC00202020004E
:1053000050415353574F52442057524F4E4720203D
:1053100000444F4F5220434C4F53494E4700505288
:10532000455353202320544F20454E544552204985
:105330004400444F4F522057414954494E47004F73
:1053400050454E494E4720444F4F522020202000C8
:10535000322E4348414E4745204C2E54494D45007E
:1053600020312E4348414E47452054494D452000A9
:10537000434C45415220434845434B20494E004150
:1053800042532020202020004C0050524553202022
:1053900020200053554D4D4152592000352E434C8D
:1053A00045415220434845434B20494E0020342E6E
:1053B000414253454E54204C495354200020203341
:1053C0002E4C415445204C49535420200020322E6D
:1053D00050524553454E54204C49535400202031DF
:1053E0002E53554D4D41525920004E455720505790
:1053F000204944200052454D4F564520434F4D50C3
:105400004C45544500233A594553002A3A4E4F0023
:1054100052454D4F56452049442000342E2000333C
:105420002E2000322E2000312E20005041535357A1
:105430004F52443A20004E4557204944203A20001C
:10544000505720464F52204944200052454143487E
:105450004544004D4158204143434F554E5400337D
:105460002E4348414E4745204D454D205057003270
:105470002E52454D4F5645204D454D424552002038
:10548000312E414444204D454D4245522020004399
:1054900048414E47452053554343455353004348E5
:1054A000414E474520414420504153530020202085
:1054B00020352E54494D4520202020200020203426
:1054C0002E434845434B20494E2020200020332EB8
:1054D0004D414E41474520555345522000434841D8
:1054E0004E474520555345522050415353002020EC
:1054F000322E4348414E474520505720200020205F
:10550000312E4F50454E20444F4F522020002A004C
:105510005041535320464F522049442000496E7653
:10552000616C696420494420202020202000202034
:105530002020202020202020202020002000454E58
:1055400054455220494420202020202020200020A3
:10555000202020202020202020202020202020006B
:105560005052455353202320464F5220504153530D
:10557000000030003030002020202000454D5054E5
:105580005900202000312E555020322E444E203319
:0A5590002E4D4F4445003A00300054
:06559A00D9CFE6FFE1CFCE
:1055A000D9FF020EE126FE0EDB500F0BDF6EFE0E62
:1055B000DB380F0B0A0D010EF3CFDBFFDB50DF24CE
:1055C000146E020EE15C02E2E16AE552E16E1450F3
:1055D000E552E7CFD9FF1200D9CFE6FFE1CFD9FFDF
:1055E000020EE1260A0E146E0E6EFE0EDBCF09F0DF
:1055F0001BEC2FF00550DF6E0A0E146E0E6EFE0EC1
:10560000DBCF09F01BEC2FF00950100D010EF3CF8A
:10561000DBFFDB50DF24146E020EE15C02E2E16A84
:10562000E552E16E1450E552E7CFD9FF120094968F
:1056300094981200D9CFE6FFE1CFD9FFE652DF6A96
:10564000FE0EDB50DF5C02E2DF2AFAD7E552E552BC
:10565000E7CFD9FF120082A8000C010C0B01FD510D
:1056600002E08288828682988296010EFD6F120087
:105670008298828682880B01FD6B1200D9CFE6FFEB
:10568000E1CFD9FF020EE126DF6ADFCF14F0080E6A
:10569000E76E1418E8AE02D0E73402D0E750145C8D
:1056A0000FE2FE0EDBBE02D0829801D08288828695
:1056B0008296DB50020DFE0EF3CFDBFFDF2AE5D72B
:1056C00094888286C8DFE76E010EE7CFDBFF829603
:1056D0009498DB50146E020EE15C02E2E16AE5523E
:1056E000E16E1450E552E7CFD9FF1200D9CFE6FFA3
:1056F000E1CFD9FF020EE126DF6A9488010EDB6A52
:10570000DBCF14F0080EE76E1418E8AE02D0E734D1
:1057100002D0E750145C0BE282869DDF146EDF50EE
:10572000E8241410DF6E8296010EDB2AE9D79498E4
:10573000FE0EDB5002E0828801D08298828682963B
:10574000DF50146E020EE15C02E2E16AE552E16EA6
:105750001450E552E7CFD9FF1200D9CFE6FFE1CFD1
:10576000D9FF7CDFD00EE66E89DFE552FE0EDBCF7F
:10577000E6FF84DFE552FD0EDBCFE6FF2DDFE552CD
:10578000E66E7CDFE55274DFE552E7CFD9FF120009
:10579000D9CFE6FFE1CFD9FFE65260DFD00EE66E4B
:1057A0006DDFE552FE0EDBCFE6FF68DFE55256DF28
:1057B000D10EE66E63DFE552010EE66E97DFE5522D
:1057C000DF6EDFCFE6FFE9DEE552DF6E51DFDF504F
:1057D000E552E552E7CFD9FF1200D9CFE6FFE1CF7E
:1057E000D9FFFD0EDBCFE6FFFE0EDBCFE6FFB5DF18
:1057F000E552E552E552E7CFD9FF1200D9CFE6FFD7
:10580000E1CFD9FFFE0EDBCFE6FFC2DFE552E55266
:06581000E7CFD9FF1200F2
:0A581600F28ED08EF28C1200F19C8D
:10582000F292F2881200D8CFE4FFE0CFE4FFE46EFA
:10583000DACFE4FFE2CFDAFFE9CFE4FFEACFE4FF1B
:10584000F6CFE4FFF7CFE4FFF5CFE4FFF3CFE4FFBB
:10585000F4CFE4FFFACFE4FF00EE00F0140EE8040A
:1058600003E3EECFE4FFFBD700EE14F00A0EE804EA
:1058700003E3EECFE4FFFBD7E652F2A407D066ECD9
:1058800023F0F29468EC23F012EC25F09EA007D0F0
:1058900051EC24F09E900BEC24F020EC25F0A1A21A
:1058A00007D010EC25F0A192CAEC24F03CEC25F0D6
:1058B000F2B2F2929EBA9E9AE55200EE1DF00A0EE6
:1058C000E80403E3E5CFEDFFFBD700EE13F0140E81
:1058D000E80403E3E5CFEDFFFBD7E5CFFAFFE5CF23
:1058E000F4FFE5CFF3FFE5CFF5FFE5CFF7FFE5CF19
:1058F000F6FFE5CFEAFFE5CFE9FFE5CFDAFFE550B8
:10590000E5CFE0FFE5CFD8FF1000DACFE4FFE2CF2C
:10591000DAFFE9CFE4FFEACFE4FFF6CFE4FFF7CF09
:10592000E4FFF5CFE4FFF3CFE4FFF4CFE4FFFACFD9
:10593000E4FF00EE00F0140EE80403E3EECFE4FF12
:10594000FBD700EE14F00A0EE80403E3EECFE4FF09
:10595000FBD7E652F2A407D066EC23F0F29468EC91
:1059600023F012EC25F09EA007D051EC24F09E907D
:105970000BEC24F020EC25F0A1A207D010EC25F0D0
:10598000A192CAEC24F03CEC25F0F2B2F2929EBA5D
:105990009E9AE55200EE1DF00A0EE80403E3E5CFFF
:1059A000EDFFFBD700EE13F0140EE80403E3E5CFA0
:1059B000EDFFFBD7E5CFFAFFE5CFF4FFE5CFF3FF2F
:1059C000E5CFF5FFE5CFF7FFE5CFF6FFE5CFEAFF3F
:0A59D000E5CFE9FFE5CFDAFF110093
:0659DA00006A0EAEF6EFBC
:1059E0002CF00D6C0E1EE86A0E22001E09AEFEEFB2
:1059F0002CF0086C091EE86A0922001EE7EC2EF064
:105A000009BE0EEF2DF000AE000C086C091EE86A0E
:105A10000922046C051EE86A0522000C00BE05EF91
:105A20002DF00188FF0C006A0EAE1EEF2DF00C6CFD
:105A30000D1E0E1EE86A0D220E22001E09AE28EF72
:105A40002DF0076C081E091EE86A08220922001EB4
:105A5000CAEC2EF009BE3BEF2DF000AE000C076C37
:105A6000081E091EE86A08220922036C041E051E8E
:105A700004220522000C00BE2FEF2DF00188FF0C40
:105A800009C013F008C012F008500D02F4CF07F05F
:105A9000F3CF06F009500E02F4CF09F0F3CF08F06F
